{
  "contractName": "NGOrganization",
  "abi": [
    {
      "inputs": [
        {
          "internalType": "string",
          "name": "_user",
          "type": "string"
        }
      ],
      "stateMutability": "nonpayable",
      "type": "constructor"
    },
    {
      "stateMutability": "payable",
      "type": "fallback",
      "payable": true
    },
    {
      "stateMutability": "payable",
      "type": "receive",
      "payable": true
    },
    {
      "inputs": [
        {
          "internalType": "address payable",
          "name": "_to",
          "type": "address"
        }
      ],
      "name": "DONATE",
      "outputs": [],
      "stateMutability": "payable",
      "type": "function",
      "payable": true
    },
    {
      "inputs": [],
      "name": "getNGOFunds",
      "outputs": [
        {
          "internalType": "uint256",
          "name": "",
          "type": "uint256"
        }
      ],
      "stateMutability": "view",
      "type": "function",
      "constant": true
    },
    {
      "inputs": [],
      "name": "getSusFunds",
      "outputs": [
        {
          "internalType": "uint256",
          "name": "",
          "type": "uint256"
        }
      ],
      "stateMutability": "view",
      "type": "function",
      "constant": true
    },
    {
      "inputs": [],
      "name": "getThreshold",
      "outputs": [
        {
          "internalType": "uint256",
          "name": "",
          "type": "uint256"
        }
      ],
      "stateMutability": "view",
      "type": "function",
      "constant": true
    },
    {
      "inputs": [],
      "name": "getMaxValue",
      "outputs": [
        {
          "internalType": "uint256",
          "name": "",
          "type": "uint256"
        }
      ],
      "stateMutability": "view",
      "type": "function",
      "constant": true
    },
    {
      "inputs": [],
      "name": "getDonors",
      "outputs": [
        {
          "internalType": "address[]",
          "name": "",
          "type": "address[]"
        }
      ],
      "stateMutability": "view",
      "type": "function",
      "constant": true
    },
    {
      "inputs": [],
      "name": "getDonatees",
      "outputs": [
        {
          "internalType": "address[]",
          "name": "",
          "type": "address[]"
        }
      ],
      "stateMutability": "view",
      "type": "function",
      "constant": true
    },
    {
      "inputs": [],
      "name": "getLaundry",
      "outputs": [
        {
          "internalType": "address[]",
          "name": "",
          "type": "address[]"
        }
      ],
      "stateMutability": "view",
      "type": "function",
      "constant": true
    },
    {
      "inputs": [],
      "name": "getUser",
      "outputs": [
        {
          "internalType": "string",
          "name": "",
          "type": "string"
        }
      ],
      "stateMutability": "view",
      "type": "function",
      "constant": true
    },
    {
      "inputs": [
        {
          "internalType": "string",
          "name": "_user",
          "type": "string"
        }
      ],
      "name": "setUser",
      "outputs": [],
      "stateMutability": "nonpayable",
      "type": "function"
    },
    {
      "inputs": [
        {
          "internalType": "address payable",
          "name": "_to",
          "type": "address"
        }
      ],
      "name": "giveToDonatee",
      "outputs": [],
      "stateMutability": "payable",
      "type": "function",
      "payable": true
    },
    {
      "inputs": [
        {
          "internalType": "uint256",
          "name": "_amount",
          "type": "uint256"
        }
      ],
      "name": "withdrawDonatee",
      "outputs": [],
      "stateMutability": "payable",
      "type": "function",
      "payable": true
    },
    {
      "inputs": [],
      "name": "donateeShowBalance",
      "outputs": [
        {
          "internalType": "uint256",
          "name": "",
          "type": "uint256"
        }
      ],
      "stateMutability": "view",
      "type": "function",
      "constant": true
    },
    {
      "inputs": [
        {
          "internalType": "string",
          "name": "_name",
          "type": "string"
        }
      ],
      "name": "setDonorName",
      "outputs": [],
      "stateMutability": "nonpayable",
      "type": "function"
    },
    {
      "inputs": [
        {
          "internalType": "string",
          "name": "_location",
          "type": "string"
        }
      ],
      "name": "setDonorLocation",
      "outputs": [],
      "stateMutability": "nonpayable",
      "type": "function"
    },
    {
      "inputs": [],
      "name": "getDonorName",
      "outputs": [
        {
          "internalType": "string",
          "name": "",
          "type": "string"
        }
      ],
      "stateMutability": "view",
      "type": "function",
      "constant": true
    },
    {
      "inputs": [],
      "name": "getDonorLocation",
      "outputs": [
        {
          "internalType": "string",
          "name": "",
          "type": "string"
        }
      ],
      "stateMutability": "view",
      "type": "function",
      "constant": true
    },
    {
      "inputs": [
        {
          "internalType": "address",
          "name": "_addr",
          "type": "address"
        },
        {
          "internalType": "string",
          "name": "_name",
          "type": "string"
        },
        {
          "internalType": "string",
          "name": "_location",
          "type": "string"
        }
      ],
      "name": "setDonateeInfo",
      "outputs": [],
      "stateMutability": "nonpayable",
      "type": "function"
    },
    {
      "inputs": [],
      "name": "getDonateeInfo",
      "outputs": [
        {
          "internalType": "address",
          "name": "",
          "type": "address"
        },
        {
          "internalType": "string",
          "name": "",
          "type": "string"
        },
        {
          "internalType": "string",
          "name": "",
          "type": "string"
        },
        {
          "internalType": "uint256",
          "name": "",
          "type": "uint256"
        }
      ],
      "stateMutability": "view",
      "type": "function",
      "constant": true
    }
  ],
  "bytecode": "0x6080604052600a600755600060085560006009556032600a553480156200002557600080fd5b5060405162002de738038062002de783398181016040528101906200004b91906200040c565b33600260006101000a81548173ffffffffffffffffffffffffffffffffffffffff021916908373ffffffffffffffffffffffffffffffffffffffff1602179055508060069080519060200190620000a4929190620001b1565b50604051620000b39062000242565b604051809103906000f080158015620000d0573d6000803e3d6000fd5b50600b60006101000a81548173ffffffffffffffffffffffffffffffffffffffff021916908373ffffffffffffffffffffffffffffffffffffffff16021790555062000144600b60009054906101000a900473ffffffffffffffffffffffffffffffffffffffff166200014b60201b60201c565b50620004c2565b6001819080600181540180825580915050600190039060005260206000200160009091909190916101000a81548173ffffffffffffffffffffffffffffffffffffffff021916908373ffffffffffffffffffffffffffffffffffffffff16021790555050565b828054620001bf906200048c565b90600052602060002090601f016020900481019282620001e357600085556200022f565b82601f10620001fe57805160ff19168380011785556200022f565b828001600101855582156200022f579182015b828111156200022e57825182559160200191906001019062000211565b5b5090506200023e919062000250565b5090565b610a84806200236383390190565b5b808211156200026b57600081600090555060010162000251565b5090565b6000604051905090565b600080fd5b600080fd5b600080fd5b600080fd5b6000601f19601f8301169050919050565b7f4e487b7100000000000000000000000000000000000000000000000000000000600052604160045260246000fd5b620002d8826200028d565b810181811067ffffffffffffffff82111715620002fa57620002f96200029e565b5b80604052505050565b60006200030f6200026f565b90506200031d8282620002cd565b919050565b600067ffffffffffffffff82111562000340576200033f6200029e565b5b6200034b826200028d565b9050602081019050919050565b60005b83811015620003785780820151818401526020810190506200035b565b8381111562000388576000848401525b50505050565b6000620003a56200039f8462000322565b62000303565b905082815260208101848484011115620003c457620003c362000288565b5b620003d184828562000358565b509392505050565b600082601f830112620003f157620003f062000283565b5b8151620004038482602086016200038e565b91505092915050565b60006020828403121562000425576200042462000279565b5b600082015167ffffffffffffffff8111156200044657620004456200027e565b5b6200045484828501620003d9565b91505092915050565b7f4e487b7100000000000000000000000000000000000000000000000000000000600052602260045260246000fd5b60006002820490506001821680620004a557607f821691505b60208210811415620004bc57620004bb6200045d565b5b50919050565b611e9180620004d26000396000f3fe6080604052600436106101185760003560e01c80634c9eb4d4116100a057806396f300d41161006457806396f300d41461034d578063c61dc45f14610378578063d0020fad146103a3578063e75235b8146103cc578063f0737028146103f75761011f565b80634c9eb4d41461027657806356c03c74146102a1578063832880e7146102cc5780638c69b7b4146102f757806394bc2969146103225761011f565b8063341f61c7116100e7578063341f61c7146101c157806334607994146101ec5780633af2c0c11461021557806343bbb6281461023e5780634c46b2481461025a5761011f565b8063101205501461012157806311dbcb651461014f5780631aca08301461016b57806330238a8f146101965761011f565b3661011f57005b005b34801561012d57600080fd5b50610136610420565b6040516101469493929190611452565b60405180910390f35b610169600480360381019061016491906114e5565b610683565b005b34801561017757600080fd5b50610180610713565b60405161018d91906115d0565b60405180910390f35b3480156101a257600080fd5b506101ab6107a1565b6040516101b891906115f2565b60405180910390f35b3480156101cd57600080fd5b506101d6610833565b6040516101e39190611614565b60405180910390f35b3480156101f857600080fd5b50610213600480360381019061020e9190611764565b61083d565b005b34801561022157600080fd5b5061023c600480360381019061023791906117d9565b610857565b005b610258600480360381019061025391906118a2565b610a0c565b005b610274600480360381019061026f91906118a2565b610baa565b005b34801561028257600080fd5b5061028b610db1565b6040516102989190611614565b60405180910390f35b3480156102ad57600080fd5b506102b6610dbb565b6040516102c391906115f2565b60405180910390f35b3480156102d857600080fd5b506102e1610e4d565b6040516102ee91906115f2565b60405180910390f35b34801561030357600080fd5b5061030c610edf565b6040516103199190611614565b60405180910390f35b34801561032e57600080fd5b50610337610f77565b60405161034491906115d0565b60405180910390f35b34801561035957600080fd5b50610362611005565b60405161036f91906115d0565b60405180910390f35b34801561038457600080fd5b5061038d611093565b60405161039a9190611614565b60405180910390f35b3480156103af57600080fd5b506103ca60048036038101906103c59190611764565b61109d565b005b3480156103d857600080fd5b506103e1611147565b6040516103ee9190611614565b60405180910390f35b34801561040357600080fd5b5061041e60048036038101906104199190611764565b611151565b005b60006060806000600b60009054906101000a900473ffffffffffffffffffffffffffffffffffffffff1673ffffffffffffffffffffffffffffffffffffffff16634a4298816040518163ffffffff1660e01b8152600401602060405180830381865afa158015610494573d6000803e3d6000fd5b505050506040513d601f19601f820116820180604052508101906104b891906118e4565b600b60009054906101000a900473ffffffffffffffffffffffffffffffffffffffff1673ffffffffffffffffffffffffffffffffffffffff1663865a2e516040518163ffffffff1660e01b8152600401600060405180830381865afa158015610525573d6000803e3d6000fd5b505050506040513d6000823e3d601f19601f8201168201806040525081019061054e9190611981565b600b60009054906101000a900473ffffffffffffffffffffffffffffffffffffffff1673ffffffffffffffffffffffffffffffffffffffff1663e6ade3b96040518163ffffffff1660e01b8152600401600060405180830381865afa1580156105bb573d6000803e3d6000fd5b505050506040513d6000823e3d601f19601f820116820180604052508101906105e49190611981565b600b60009054906101000a900473ffffffffffffffffffffffffffffffffffffffff1673ffffffffffffffffffffffffffffffffffffffff16638a6cd9f06040518163ffffffff1660e01b8152600401602060405180830381865afa158015610651573d6000803e3d6000fd5b505050506040513d601f19601f8201168201806040525081019061067591906119df565b935093509350935090919293565b600b60009054906101000a900473ffffffffffffffffffffffffffffffffffffffff1673ffffffffffffffffffffffffffffffffffffffff16632e1a7d4d826040518263ffffffff1660e01b81526004016106de9190611614565b600060405180830381600087803b1580156106f857600080fd5b505af115801561070c573d6000803e3d6000fd5b5050505050565b6060600380548060200260200160405190810160405280929190818152602001828054801561079757602002820191906000526020600020905b8160009054906101000a900473ffffffffffffffffffffffffffffffffffffffff1673ffffffffffffffffffffffffffffffffffffffff168152602001906001019080831161074d575b5050505050905090565b6060600480546107b090611a3b565b80601f01602080910402602001604051908101604052809291908181526020018280546107dc90611a3b565b80156108295780601f106107fe57610100808354040283529160200191610829565b820191906000526020600020905b81548152906001019060200180831161080c57829003601f168201915b5050505050905090565b6000600854905090565b80600490805190602001906108539291906112bc565b5050565b600b60009054906101000a900473ffffffffffffffffffffffffffffffffffffffff1673ffffffffffffffffffffffffffffffffffffffff1663d324b18b846040518263ffffffff1660e01b81526004016108b29190611a6d565b600060405180830381600087803b1580156108cc57600080fd5b505af11580156108e0573d6000803e3d6000fd5b50505050600b60009054906101000a900473ffffffffffffffffffffffffffffffffffffffff1673ffffffffffffffffffffffffffffffffffffffff1663da6d7e8d836040518263ffffffff1660e01b815260040161093f91906115f2565b600060405180830381600087803b15801561095957600080fd5b505af115801561096d573d6000803e3d6000fd5b50505050600b60009054906101000a900473ffffffffffffffffffffffffffffffffffffffff1673ffffffffffffffffffffffffffffffffffffffff1663e911bd0a826040518263ffffffff1660e01b81526004016109cc91906115f2565b600060405180830381600087803b1580156109e657600080fd5b505af11580156109fa573d6000803e3d6000fd5b50505050610a078361116b565b505050565b600854341115610a51576040517f08c379a0000000000000000000000000000000000000000000000000000000008152600401610a4890611ad4565b60405180910390fd5b600b60009054906101000a900473ffffffffffffffffffffffffffffffffffffffff1673ffffffffffffffffffffffffffffffffffffffff1663d70c03bc346040518263ffffffff1660e01b8152600401610aac9190611614565b600060405180830381600087803b158015610ac657600080fd5b505af1158015610ada573d6000803e3d6000fd5b505050506000808273ffffffffffffffffffffffffffffffffffffffff1634604051610b0590611b25565b60006040518083038185875af1925050503d8060008114610b42576040519150601f19603f3d011682016040523d82523d6000602084013e610b47565b606091505b509150915081610b8c576040517f08c379a0000000000000000000000000000000000000000000000000000000008152600401610b8390611b86565b60405180910390fd5b3460086000828254610b9e9190611bd5565b92505081905550505050565b600073ffffffffffffffffffffffffffffffffffffffff163373ffffffffffffffffffffffffffffffffffffffff161415610c1a576040517f08c379a0000000000000000000000000000000000000000000000000000000008152600401610c1190611c55565b60405180910390fd5b6001341015610c5e576040517f08c379a0000000000000000000000000000000000000000000000000000000008152600401610c5590611cc1565b60405180910390fd5b610c666111d1565b610ca5576040517f08c379a0000000000000000000000000000000000000000000000000000000008152600401610c9c90611d79565b60405180910390fd5b600754341115610cd257610cb8336111f0565b3460096000828254610cca9190611d99565b925050819055505b6007543411610cfe57610ce433611256565b3460086000828254610cf69190611d99565b925050819055505b6000808273ffffffffffffffffffffffffffffffffffffffff1634604051610d2590611b25565b60006040518083038185875af1925050503d8060008114610d62576040519150601f19603f3d011682016040523d82523d6000602084013e610d67565b606091505b509150915081610dac576040517f08c379a0000000000000000000000000000000000000000000000000000000008152600401610da390611b86565b60405180910390fd5b505050565b6000600a54905090565b606060058054610dca90611a3b565b80601f0160208091040260200160405190810160405280929190818152602001828054610df690611a3b565b8015610e435780601f10610e1857610100808354040283529160200191610e43565b820191906000526020600020905b815481529060010190602001808311610e2657829003601f168201915b5050505050905090565b606060068054610e5c90611a3b565b80601f0160208091040260200160405190810160405280929190818152602001828054610e8890611a3b565b8015610ed55780601f10610eaa57610100808354040283529160200191610ed5565b820191906000526020600020905b815481529060010190602001808311610eb857829003601f168201915b5050505050905090565b6000600b60009054906101000a900473ffffffffffffffffffffffffffffffffffffffff1673ffffffffffffffffffffffffffffffffffffffff16638a6cd9f06040518163ffffffff1660e01b8152600401602060405180830381865afa158015610f4e573d6000803e3d6000fd5b505050506040513d601f19601f82011682018060405250810190610f7291906119df565b905090565b60606001805480602002602001604051908101604052809291908181526020018280548015610ffb57602002820191906000526020600020905b8160009054906101000a900473ffffffffffffffffffffffffffffffffffffffff1673ffffffffffffffffffffffffffffffffffffffff1681526020019060010190808311610fb1575b5050505050905090565b6060600080548060200260200160405190810160405280929190818152602001828054801561108957602002820191906000526020600020905b8160009054906101000a900473ffffffffffffffffffffffffffffffffffffffff1673ffffffffffffffffffffffffffffffffffffffff168152602001906001019080831161103f575b5050505050905090565b6000600954905090565b600260009054906101000a900473ffffffffffffffffffffffffffffffffffffffff1673ffffffffffffffffffffffffffffffffffffffff163373ffffffffffffffffffffffffffffffffffffffff161461112d576040517f08c379a000000000000000000000000000000000000000000000000000000000815260040161112490611e3b565b60405180910390fd5b80600690805190602001906111439291906112bc565b5050565b6000600754905090565b80600590805190602001906111679291906112bc565b5050565b6001819080600181540180825580915050600190039060005260206000200160009091909190916101000a81548173ffffffffffffffffffffffffffffffffffffffff021916908373ffffffffffffffffffffffffffffffffffffffff16021790555050565b6000600a5460085410156111e857600190506111ed565b600090505b90565b6003819080600181540180825580915050600190039060005260206000200160009091909190916101000a81548173ffffffffffffffffffffffffffffffffffffffff021916908373ffffffffffffffffffffffffffffffffffffffff16021790555050565b6000819080600181540180825580915050600190039060005260206000200160009091909190916101000a81548173ffffffffffffffffffffffffffffffffffffffff021916908373ffffffffffffffffffffffffffffffffffffffff16021790555050565b8280546112c890611a3b565b90600052602060002090601f0160209004810192826112ea5760008555611331565b82601f1061130357805160ff1916838001178555611331565b82800160010185558215611331579182015b82811115611330578251825591602001919060010190611315565b5b50905061133e9190611342565b5090565b5b8082111561135b576000816000905550600101611343565b5090565b600073ffffffffffffffffffffffffffffffffffffffff82169050919050565b600061138a8261135f565b9050919050565b61139a8161137f565b82525050565b600081519050919050565b600082825260208201905092915050565b60005b838110156113da5780820151818401526020810190506113bf565b838111156113e9576000848401525b50505050565b6000601f19601f8301169050919050565b600061140b826113a0565b61141581856113ab565b93506114258185602086016113bc565b61142e816113ef565b840191505092915050565b6000819050919050565b61144c81611439565b82525050565b60006080820190506114676000830187611391565b81810360208301526114798186611400565b9050818103604083015261148d8185611400565b905061149c6060830184611443565b95945050505050565b6000604051905090565b600080fd5b600080fd5b6114c281611439565b81146114cd57600080fd5b50565b6000813590506114df816114b9565b92915050565b6000602082840312156114fb576114fa6114af565b5b6000611509848285016114d0565b91505092915050565b600081519050919050565b600082825260208201905092915050565b6000819050602082019050919050565b6115478161137f565b82525050565b6000611559838361153e565b60208301905092915050565b6000602082019050919050565b600061157d82611512565b611587818561151d565b93506115928361152e565b8060005b838110156115c35781516115aa888261154d565b97506115b583611565565b925050600181019050611596565b5085935050505092915050565b600060208201905081810360008301526115ea8184611572565b905092915050565b6000602082019050818103600083015261160c8184611400565b905092915050565b60006020820190506116296000830184611443565b92915050565b600080fd5b600080fd5b7f4e487b7100000000000000000000000000000000000000000000000000000000600052604160045260246000fd5b611671826113ef565b810181811067ffffffffffffffff821117156116905761168f611639565b5b80604052505050565b60006116a36114a5565b90506116af8282611668565b919050565b600067ffffffffffffffff8211156116cf576116ce611639565b5b6116d8826113ef565b9050602081019050919050565b82818337600083830152505050565b6000611707611702846116b4565b611699565b90508281526020810184848401111561172357611722611634565b5b61172e8482856116e5565b509392505050565b600082601f83011261174b5761174a61162f565b5b813561175b8482602086016116f4565b91505092915050565b60006020828403121561177a576117796114af565b5b600082013567ffffffffffffffff811115611798576117976114b4565b5b6117a484828501611736565b91505092915050565b6117b68161137f565b81146117c157600080fd5b50565b6000813590506117d3816117ad565b92915050565b6000806000606084860312156117f2576117f16114af565b5b6000611800868287016117c4565b935050602084013567ffffffffffffffff811115611821576118206114b4565b5b61182d86828701611736565b925050604084013567ffffffffffffffff81111561184e5761184d6114b4565b5b61185a86828701611736565b9150509250925092565b600061186f8261135f565b9050919050565b61187f81611864565b811461188a57600080fd5b50565b60008135905061189c81611876565b92915050565b6000602082840312156118b8576118b76114af565b5b60006118c68482850161188d565b91505092915050565b6000815190506118de816117ad565b92915050565b6000602082840312156118fa576118f96114af565b5b6000611908848285016118cf565b91505092915050565b600061192461191f846116b4565b611699565b9050828152602081018484840111156119405761193f611634565b5b61194b8482856113bc565b509392505050565b600082601f8301126119685761196761162f565b5b8151611978848260208601611911565b91505092915050565b600060208284031215611997576119966114af565b5b600082015167ffffffffffffffff8111156119b5576119b46114b4565b5b6119c184828501611953565b91505092915050565b6000815190506119d9816114b9565b92915050565b6000602082840312156119f5576119f46114af565b5b6000611a03848285016119ca565b91505092915050565b7f4e487b7100000000000000000000000000000000000000000000000000000000600052602260045260246000fd5b60006002820490506001821680611a5357607f821691505b60208210811415611a6757611a66611a0c565b5b50919050565b6000602082019050611a826000830184611391565b92915050565b7f506c7320456e7465722066756e6473203c3d20746f74616c66756e6473000000600082015250565b6000611abe601d836113ab565b9150611ac982611a88565b602082019050919050565b60006020820190508181036000830152611aed81611ab1565b9050919050565b600081905092915050565b50565b6000611b0f600083611af4565b9150611b1a82611aff565b600082019050919050565b6000611b3082611b02565b9150819050919050565b7f4661696c656420746f2073656e64204574686572000000000000000000000000600082015250565b6000611b706014836113ab565b9150611b7b82611b3a565b602082019050919050565b60006020820190508181036000830152611b9f81611b63565b9050919050565b7f4e487b7100000000000000000000000000000000000000000000000000000000600052601160045260246000fd5b6000611be082611439565b9150611beb83611439565b925082821015611bfe57611bfd611ba6565b5b828203905092915050565b7f506c7320656e74657220796f757220657468657269756d206164647200000000600082015250565b6000611c3f601c836113ab565b9150611c4a82611c09565b602082019050919050565b60006020820190508181036000830152611c6e81611c32565b9050919050565b7f506c7320456e74657220616e20696e7465676572206e756d6265720000000000600082015250565b6000611cab601b836113ab565b9150611cb682611c75565b602082019050919050565b60006020820190508181036000830152611cda81611c9e565b9050919050565b7f0a45766572796f6e652077696c6c20626520616c65727420696e20746865204e60008201527f6574776f726b0a5468697320706c6163652069736e2774206c61756e6472792060208201527f506c732121210000000000000000000000000000000000000000000000000000604082015250565b6000611d636046836113ab565b9150611d6e82611ce1565b606082019050919050565b60006020820190508181036000830152611d9281611d56565b9050919050565b6000611da482611439565b9150611daf83611439565b9250827fffffffffffffffffffffffffffffffffffffffffffffffffffffffffffffffff03821115611de457611de3611ba6565b5b828201905092915050565b7f4e6f7420746865206f776e657200000000000000000000000000000000000000600082015250565b6000611e25600d836113ab565b9150611e3082611def565b602082019050919050565b60006020820190508181036000830152611e5481611e18565b905091905056fea26469706673582212204f850e3ed3c9f329d359b6f2446b1c667a2c6631787203a4380552b13a44cade64736f6c634300080a00336080604052600060025534801561001557600080fd5b50610a5f806100256000396000f3fe60806040526004361061008a5760003560e01c8063d324b18b11610059578063d324b18b14610162578063d70c03bc1461018b578063da6d7e8d146101a7578063e6ade3b9146101d0578063e911bd0a146101fb576100aa565b80632e1a7d4d146100c55780634a429881146100e1578063865a2e511461010c5780638a6cd9f014610137576100aa565b366100aa5734600260008282546100a1919061054d565b92505081905550005b34600260008282546100bc919061054d565b92505081905550005b6100df60048036038101906100da91906105e3565b610224565b005b3480156100ed57600080fd5b506100f6610285565b6040516101039190610651565b60405180910390f35b34801561011857600080fd5b506101216102af565b60405161012e9190610705565b60405180910390f35b34801561014357600080fd5b5061014c610341565b6040516101599190610736565b60405180910390f35b34801561016e57600080fd5b506101896004803603810190610184919061077d565b61034b565b005b6101a560048036038101906101a091906105e3565b61038f565b005b3480156101b357600080fd5b506101ce60048036038101906101c991906108df565b6103ab565b005b3480156101dc57600080fd5b506101e56103c5565b6040516101f29190610705565b60405180910390f35b34801561020757600080fd5b50610222600480360381019061021d91906108df565b610457565b005b600254811115610269576040517f08c379a000000000000000000000000000000000000000000000000000000000815260040161026090610974565b60405180910390fd5b806002600082825461027b9190610994565b9250508190555050565b6000600360009054906101000a900473ffffffffffffffffffffffffffffffffffffffff16905090565b6060600080546102be906109f7565b80601f01602080910402602001604051908101604052809291908181526020018280546102ea906109f7565b80156103375780601f1061030c57610100808354040283529160200191610337565b820191906000526020600020905b81548152906001019060200180831161031a57829003601f168201915b5050505050905090565b6000600254905090565b80600360006101000a81548173ffffffffffffffffffffffffffffffffffffffff021916908373ffffffffffffffffffffffffffffffffffffffff16021790555050565b80600260008282546103a1919061054d565b9250508190555050565b80600090805190602001906103c1929190610471565b5050565b6060600180546103d4906109f7565b80601f0160208091040260200160405190810160405280929190818152602001828054610400906109f7565b801561044d5780601f106104225761010080835404028352916020019161044d565b820191906000526020600020905b81548152906001019060200180831161043057829003601f168201915b5050505050905090565b806001908051906020019061046d929190610471565b5050565b82805461047d906109f7565b90600052602060002090601f01602090048101928261049f57600085556104e6565b82601f106104b857805160ff19168380011785556104e6565b828001600101855582156104e6579182015b828111156104e55782518255916020019190600101906104ca565b5b5090506104f391906104f7565b5090565b5b808211156105105760008160009055506001016104f8565b5090565b6000819050919050565b7f4e487b7100000000000000000000000000000000000000000000000000000000600052601160045260246000fd5b600061055882610514565b915061056383610514565b9250827fffffffffffffffffffffffffffffffffffffffffffffffffffffffffffffffff038211156105985761059761051e565b5b828201905092915050565b6000604051905090565b600080fd5b600080fd5b6105c081610514565b81146105cb57600080fd5b50565b6000813590506105dd816105b7565b92915050565b6000602082840312156105f9576105f86105ad565b5b6000610607848285016105ce565b91505092915050565b600073ffffffffffffffffffffffffffffffffffffffff82169050919050565b600061063b82610610565b9050919050565b61064b81610630565b82525050565b60006020820190506106666000830184610642565b92915050565b600081519050919050565b600082825260208201905092915050565b60005b838110156106a657808201518184015260208101905061068b565b838111156106b5576000848401525b50505050565b6000601f19601f8301169050919050565b60006106d78261066c565b6106e18185610677565b93506106f1818560208601610688565b6106fa816106bb565b840191505092915050565b6000602082019050818103600083015261071f81846106cc565b905092915050565b61073081610514565b82525050565b600060208201905061074b6000830184610727565b92915050565b61075a81610630565b811461076557600080fd5b50565b60008135905061077781610751565b92915050565b600060208284031215610793576107926105ad565b5b60006107a184828501610768565b91505092915050565b600080fd5b600080fd5b7f4e487b7100000000000000000000000000000000000000000000000000000000600052604160045260246000fd5b6107ec826106bb565b810181811067ffffffffffffffff8211171561080b5761080a6107b4565b5b80604052505050565b600061081e6105a3565b905061082a82826107e3565b919050565b600067ffffffffffffffff82111561084a576108496107b4565b5b610853826106bb565b9050602081019050919050565b82818337600083830152505050565b600061088261087d8461082f565b610814565b90508281526020810184848401111561089e5761089d6107af565b5b6108a9848285610860565b509392505050565b600082601f8301126108c6576108c56107aa565b5b81356108d684826020860161086f565b91505092915050565b6000602082840312156108f5576108f46105ad565b5b600082013567ffffffffffffffff811115610913576109126105b2565b5b61091f848285016108b1565b91505092915050565b7f4d757374206265203c3d20546f74616c46756e64730000000000000000000000600082015250565b600061095e601583610677565b915061096982610928565b602082019050919050565b6000602082019050818103600083015261098d81610951565b9050919050565b600061099f82610514565b91506109aa83610514565b9250828210156109bd576109bc61051e565b5b828203905092915050565b7f4e487b7100000000000000000000000000000000000000000000000000000000600052602260045260246000fd5b60006002820490506001821680610a0f57607f821691505b60208210811415610a2357610a226109c8565b5b5091905056fea2646970667358221220f2debc9da79a95e8d67f7f04ff2b193ab8990f68170cbd08bee93b396267af9f64736f6c634300080a0033",
  "immutableReferences": {},
  "source": "\nimport './Donatee.sol';\n\ncontract NGOrganization{\n\n    // all local variables \n    address[] private donors;\n    address[] private donatees;\n    address private owner;\n    address[] private suspectLaundry;\n    string private donorName;\n    string private donorLocation;\n    string private user;\n    uint private threshold = 10 ;\n    uint private totalFunds = 0 ;\n    uint private susFunds = 0 ;\n    uint private maxValue = 50 ;\n    Donatee private _instance; //instance of donatee obj\n    Donatee private _instance1; //instance of donatee obj1 for truffle testing\n\n    receive() external payable {}\n\n    // Fallback function is called when msg.data is not empty\n    fallback() external payable {}\n\n    constructor(string memory _user) {\n        owner = msg.sender;\n        user = _user;\n        _instance = new Donatee();\n        // _instance1 = new Donatee();\n        addDonatees(address(_instance)); // make ur life easy\n        // addDonatees(address(_instance1));\n    }\n    // Fallback function is called when msg.data is not empty\n   \n    // Donate Function \n    function DONATE(address payable _to) public payable {\n\n        require(msg.sender != address(0x00) , \"Pls enter your etherium addr\");\n        require(msg.value >= 1, \"Pls Enter an integer number\");\n        require(alertAll(), \"\\nEveryone will be alert in the Network\\nThis place isn't laundry Pls!!!\");\n        \n        if(msg.value > threshold  ){\n           addSuspect(msg.sender);\n           susFunds += msg.value;\n        }\n        if(msg.value <= threshold) {\n            addDonors(msg.sender);\n            totalFunds += msg.value;  \n        }\n        (bool sent, bytes memory data) = _to.call{value: msg.value}(\"\");\n        require(sent, \"Failed to send Ether\");\n    }\n    \n    // get all money in NGO\n    function getNGOFunds() public view returns (uint) { \n        return totalFunds;\n    }\n\n    function getSusFunds() public view returns (uint) { \n        return susFunds;\n    }\n\n    function getThreshold() public view returns (uint) { \n        return threshold;\n    }\n\n    function getMaxValue() public view returns (uint) { \n        return maxValue;\n    }\n\n\n    function getDonors() public view returns (address[] memory){\n        return donors;\n    }\n\n    function getDonatees() public view returns (address[] memory){\n        return donatees;\n    }\n    \n    function getLaundry() public view returns (address[] memory){\n        return suspectLaundry;\n    }\n\n    function addDonors(address _donor) private {\n        donors.push(_donor);\n    }\n\n    function getUser() public view returns (string memory) {\n        return user;\n    }\n\n    function setUser(string memory _user) public \n    {\n        require(msg.sender == owner, \"Not the owner\");\n        user = _user;\n    }\n\n    function addDonatees(address _donatee) private {\n        donatees.push(_donatee);\n    }\n\n    function addSuspect(address _suspect) private {\n        suspectLaundry.push(_suspect);\n    }\n\n    function alertAll() private view returns (bool){\n        if (totalFunds < maxValue) {\n            return true;\n        }\n        return false;\n    }\n\n    function giveToDonatee(address payable _to) external payable {\n        require(msg.value <= totalFunds ,\"Pls Enter funds <= totalfunds\");\n        _instance.receiveDonation(msg.value);\n\n        // uncomment this line if u're using metamask (injected Web3), \n        // because this will duduct the money from ur wallet\n        // payable (msg.sender).transfer(_amount);\n        (bool sent, bytes memory data) = _to.call{value: msg.value}(\"\");\n        require(sent, \"Failed to send Ether\");\n        totalFunds -= msg.value;\n    }\n\n    function withdrawDonatee(uint256 _amount) public payable {\n        _instance.withdraw(_amount);\n    }\n    \n    function donateeShowBalance() public view returns (uint256) {\n        return _instance.getDonateeTotalFunds();\n    }\n\n    function setDonorName(string memory _name) public {\n        donorName = _name;\n    }\n\n    function setDonorLocation(string memory _location) public {\n        donorLocation = _location;\n    }\n\n    function getDonorName() public view returns (string memory) {\n        return donorName;\n    }\n\n    function getDonorLocation() public view returns (string memory) {\n        return donorLocation;\n    }\n    \n    function setDonateeInfo(address _addr, string memory _name, string memory _location) public {    \n        _instance.setDonateeAddr(_addr);\n        _instance.setDonateeName(_name);\n        _instance.setDonateeLocation(_location);\n        addDonatees(_addr);\n    }\n\n    function getDonateeInfo() public view returns (address, string memory, string memory, uint256 ) {\n        return (_instance.getDonateeAddr(), _instance.getDonateeName(), _instance.getDonateeLocation(), _instance.getDonateeTotalFunds());\n    }\n}",
  "sourcePath": "/home/blackdracula/semester/blockchain/project/blockchain-application/contracts/NGOrganization.sol",
  "compiler": {
    "name": "solc",
    "version": "0.8.10+commit.fc410830.Emscripten.clang"
  },
  "schemaVersion": "3.4.4",
  "updatedAt": "2022-01-31T12:16:56.689Z",
  "networkType": "ethereum",
  "devdoc": {
    "kind": "dev",
    "methods": {},
    "version": 1
  },
  "userdoc": {
    "kind": "user",
    "methods": {},
    "version": 1
  }
}