{
  "contractName": "Donatee",
  "abi": [
    {
      "inputs": [
        {
          "internalType": "uint256",
          "name": "_amount",
          "type": "uint256"
        }
      ],
      "name": "receiveDonation",
      "outputs": [],
      "stateMutability": "payable",
      "type": "function"
    },
    {
      "inputs": [
        {
          "internalType": "uint256",
          "name": "_amount",
          "type": "uint256"
        }
      ],
      "name": "withdraw",
      "outputs": [],
      "stateMutability": "payable",
      "type": "function"
    },
    {
      "inputs": [],
      "name": "showBalance",
      "outputs": [
        {
          "internalType": "uint256",
          "name": "",
          "type": "uint256"
        }
      ],
      "stateMutability": "view",
      "type": "function"
    },
    {
      "inputs": [
        {
          "internalType": "string",
          "name": "_name",
          "type": "string"
        }
      ],
      "name": "setName",
      "outputs": [],
      "stateMutability": "nonpayable",
      "type": "function"
    },
    {
      "inputs": [
        {
          "internalType": "string",
          "name": "_location",
          "type": "string"
        }
      ],
      "name": "setLocation",
      "outputs": [],
      "stateMutability": "nonpayable",
      "type": "function"
    },
    {
      "inputs": [],
      "name": "getName",
      "outputs": [
        {
          "internalType": "string",
          "name": "",
          "type": "string"
        }
      ],
      "stateMutability": "view",
      "type": "function"
    },
    {
      "inputs": [],
      "name": "getLocation",
      "outputs": [
        {
          "internalType": "string",
          "name": "",
          "type": "string"
        }
      ],
      "stateMutability": "view",
      "type": "function"
    }
  ],
  "bytecode": "0x6080604052600060025534801561001557600080fd5b50610898806100256000396000f3fe6080604052600436106100705760003560e01c8063827bfbdf1161004e578063827bfbdf146100e7578063c47f002714610110578063ce2ce3fc14610139578063d70c03bc1461016457610070565b806317d7de7c146100755780632e1a7d4d146100a057806381b2d07b146100bc575b600080fd5b34801561008157600080fd5b5061008a610180565b604051610097919061049b565b60405180910390f35b6100ba60048036038101906100b59190610507565b610212565b005b3480156100c857600080fd5b506100d1610273565b6040516100de9190610543565b60405180910390f35b3480156100f357600080fd5b5061010e60048036038101906101099190610693565b61027d565b005b34801561011c57600080fd5b5061013760048036038101906101329190610693565b610297565b005b34801561014557600080fd5b5061014e6102b1565b60405161015b919061049b565b60405180910390f35b61017e60048036038101906101799190610507565b610343565b005b60606000805461018f9061070b565b80601f01602080910402602001604051908101604052809291908181526020018280546101bb9061070b565b80156102085780601f106101dd57610100808354040283529160200191610208565b820191906000526020600020905b8154815290600101906020018083116101eb57829003601f168201915b5050505050905090565b600254811115610257576040517f08c379a000000000000000000000000000000000000000000000000000000000815260040161024e90610789565b60405180910390fd5b806002600082825461026991906107d8565b9250508190555050565b6000600254905090565b806001908051906020019061029392919061035f565b5050565b80600090805190602001906102ad92919061035f565b5050565b6060600180546102c09061070b565b80601f01602080910402602001604051908101604052809291908181526020018280546102ec9061070b565b80156103395780601f1061030e57610100808354040283529160200191610339565b820191906000526020600020905b81548152906001019060200180831161031c57829003601f168201915b5050505050905090565b8060026000828254610355919061080c565b9250508190555050565b82805461036b9061070b565b90600052602060002090601f01602090048101928261038d57600085556103d4565b82601f106103a657805160ff19168380011785556103d4565b828001600101855582156103d4579182015b828111156103d35782518255916020019190600101906103b8565b5b5090506103e191906103e5565b5090565b5b808211156103fe5760008160009055506001016103e6565b5090565b600081519050919050565b600082825260208201905092915050565b60005b8381101561043c578082015181840152602081019050610421565b8381111561044b576000848401525b50505050565b6000601f19601f8301169050919050565b600061046d82610402565b610477818561040d565b935061048781856020860161041e565b61049081610451565b840191505092915050565b600060208201905081810360008301526104b58184610462565b905092915050565b6000604051905090565b600080fd5b600080fd5b6000819050919050565b6104e4816104d1565b81146104ef57600080fd5b50565b600081359050610501816104db565b92915050565b60006020828403121561051d5761051c6104c7565b5b600061052b848285016104f2565b91505092915050565b61053d816104d1565b82525050565b60006020820190506105586000830184610534565b92915050565b600080fd5b600080fd5b7f4e487b7100000000000000000000000000000000000000000000000000000000600052604160045260246000fd5b6105a082610451565b810181811067ffffffffffffffff821117156105bf576105be610568565b5b80604052505050565b60006105d26104bd565b90506105de8282610597565b919050565b600067ffffffffffffffff8211156105fe576105fd610568565b5b61060782610451565b9050602081019050919050565b82818337600083830152505050565b6000610636610631846105e3565b6105c8565b90508281526020810184848401111561065257610651610563565b5b61065d848285610614565b509392505050565b600082601f83011261067a5761067961055e565b5b813561068a848260208601610623565b91505092915050565b6000602082840312156106a9576106a86104c7565b5b600082013567ffffffffffffffff8111156106c7576106c66104cc565b5b6106d384828501610665565b91505092915050565b7f4e487b7100000000000000000000000000000000000000000000000000000000600052602260045260246000fd5b6000600282049050600182168061072357607f821691505b60208210811415610737576107366106dc565b5b50919050565b7f4d757374206265203c3d20546f74616c46756e64730000000000000000000000600082015250565b600061077360158361040d565b915061077e8261073d565b602082019050919050565b600060208201905081810360008301526107a281610766565b9050919050565b7f4e487b7100000000000000000000000000000000000000000000000000000000600052601160045260246000fd5b60006107e3826104d1565b91506107ee836104d1565b925082821015610801576108006107a9565b5b828203905092915050565b6000610817826104d1565b9150610822836104d1565b9250827fffffffffffffffffffffffffffffffffffffffffffffffffffffffffffffffff03821115610857576108566107a9565b5b82820190509291505056fea26469706673582212202558dc6447fc4a1109e522d8770dd3b3a80dcaa1038fa32f1c69ec05e0effd6f64736f6c634300080a0033",
  "immutableReferences": {},
  "source": "// SPDX-License-Identifier: GPL-3.0\npragma solidity >=0.7.0 <0.9.0;\n\ncontract Donatee {\n\n    string private name;\n    string private location;\n    uint256 private totalFunds = 0;\n\n    function receiveDonation(uint _amount) external payable{\n        totalFunds += _amount;\n    }\n\n    function withdraw(uint _amount) external payable {\n        require(_amount <= totalFunds, \"Must be <= TotalFunds\");\n        totalFunds -= _amount;\n    }\n\n    function showBalance() public view returns (uint) {\n        return totalFunds;\n    }\n\n    function setName(string memory _name) public {\n        name = _name;\n    }\n\n    function setLocation(string memory _location) public {\n        location = _location;\n    }\n\n    function getName() public view returns (string memory) {\n        return name;\n    }\n\n    function getLocation() public view returns (string memory) {\n        return location;\n    }\n}\n",
  "sourcePath": "/home/blackdracula/semester/blockchain/project/blockchain-application/contracts/Donatee.sol",
  "compiler": {
    "name": "solc",
    "version": "0.8.10+commit.fc410830.Emscripten.clang"
  },
  "schemaVersion": "3.4.4",
  "updatedAt": "2022-01-11T05:48:02.897Z",
  "devdoc": {
    "kind": "dev",
    "methods": {},
    "version": 1
  },
  "userdoc": {
    "kind": "user",
    "methods": {},
    "version": 1
  }
}