{
  "contractName": "Donatee",
  "abi": [
    {
      "stateMutability": "payable",
      "type": "fallback"
    },
    {
      "stateMutability": "payable",
      "type": "receive"
    },
    {
      "inputs": [
        {
          "internalType": "uint256",
          "name": "_amount",
          "type": "uint256"
        }
      ],
      "name": "receiveDonation",
      "outputs": [],
      "stateMutability": "payable",
      "type": "function"
    },
    {
      "inputs": [
        {
          "internalType": "uint256",
          "name": "_amount",
          "type": "uint256"
        }
      ],
      "name": "withdraw",
      "outputs": [],
      "stateMutability": "payable",
      "type": "function"
    },
    {
      "inputs": [
        {
          "internalType": "string",
          "name": "_name",
          "type": "string"
        }
      ],
      "name": "setDonateeName",
      "outputs": [],
      "stateMutability": "nonpayable",
      "type": "function"
    },
    {
      "inputs": [
        {
          "internalType": "string",
          "name": "_location",
          "type": "string"
        }
      ],
      "name": "setDonateeLocation",
      "outputs": [],
      "stateMutability": "nonpayable",
      "type": "function"
    },
    {
      "inputs": [],
      "name": "getDonateeName",
      "outputs": [
        {
          "internalType": "string",
          "name": "",
          "type": "string"
        }
      ],
      "stateMutability": "view",
      "type": "function"
    },
    {
      "inputs": [],
      "name": "getDonateeLocation",
      "outputs": [
        {
          "internalType": "string",
          "name": "",
          "type": "string"
        }
      ],
      "stateMutability": "view",
      "type": "function"
    },
    {
      "inputs": [
        {
          "internalType": "address",
          "name": "_addr",
          "type": "address"
        }
      ],
      "name": "setDonateeAddr",
      "outputs": [],
      "stateMutability": "nonpayable",
      "type": "function"
    },
    {
      "inputs": [],
      "name": "getDonateeAddr",
      "outputs": [
        {
          "internalType": "address",
          "name": "",
          "type": "address"
        }
      ],
      "stateMutability": "view",
      "type": "function"
    },
    {
      "inputs": [],
      "name": "getDonateeTotalFunds",
      "outputs": [
        {
          "internalType": "uint256",
          "name": "",
          "type": "uint256"
        }
      ],
      "stateMutability": "view",
      "type": "function"
    }
  ],
  "bytecode": "0x6080604052600060025534801561001557600080fd5b50610a5f806100256000396000f3fe60806040526004361061008a5760003560e01c8063d324b18b11610059578063d324b18b14610162578063d70c03bc1461018b578063da6d7e8d146101a7578063e6ade3b9146101d0578063e911bd0a146101fb576100aa565b80632e1a7d4d146100c55780634a429881146100e1578063865a2e511461010c5780638a6cd9f014610137576100aa565b366100aa5734600260008282546100a1919061054d565b92505081905550005b34600260008282546100bc919061054d565b92505081905550005b6100df60048036038101906100da91906105e3565b610224565b005b3480156100ed57600080fd5b506100f6610285565b6040516101039190610651565b60405180910390f35b34801561011857600080fd5b506101216102af565b60405161012e9190610705565b60405180910390f35b34801561014357600080fd5b5061014c610341565b6040516101599190610736565b60405180910390f35b34801561016e57600080fd5b506101896004803603810190610184919061077d565b61034b565b005b6101a560048036038101906101a091906105e3565b61038f565b005b3480156101b357600080fd5b506101ce60048036038101906101c991906108df565b6103ab565b005b3480156101dc57600080fd5b506101e56103c5565b6040516101f29190610705565b60405180910390f35b34801561020757600080fd5b50610222600480360381019061021d91906108df565b610457565b005b600254811115610269576040517f08c379a000000000000000000000000000000000000000000000000000000000815260040161026090610974565b60405180910390fd5b806002600082825461027b9190610994565b9250508190555050565b6000600360009054906101000a900473ffffffffffffffffffffffffffffffffffffffff16905090565b6060600080546102be906109f7565b80601f01602080910402602001604051908101604052809291908181526020018280546102ea906109f7565b80156103375780601f1061030c57610100808354040283529160200191610337565b820191906000526020600020905b81548152906001019060200180831161031a57829003601f168201915b5050505050905090565b6000600254905090565b80600360006101000a81548173ffffffffffffffffffffffffffffffffffffffff021916908373ffffffffffffffffffffffffffffffffffffffff16021790555050565b80600260008282546103a1919061054d565b9250508190555050565b80600090805190602001906103c1929190610471565b5050565b6060600180546103d4906109f7565b80601f0160208091040260200160405190810160405280929190818152602001828054610400906109f7565b801561044d5780601f106104225761010080835404028352916020019161044d565b820191906000526020600020905b81548152906001019060200180831161043057829003601f168201915b5050505050905090565b806001908051906020019061046d929190610471565b5050565b82805461047d906109f7565b90600052602060002090601f01602090048101928261049f57600085556104e6565b82601f106104b857805160ff19168380011785556104e6565b828001600101855582156104e6579182015b828111156104e55782518255916020019190600101906104ca565b5b5090506104f391906104f7565b5090565b5b808211156105105760008160009055506001016104f8565b5090565b6000819050919050565b7f4e487b7100000000000000000000000000000000000000000000000000000000600052601160045260246000fd5b600061055882610514565b915061056383610514565b9250827fffffffffffffffffffffffffffffffffffffffffffffffffffffffffffffffff038211156105985761059761051e565b5b828201905092915050565b6000604051905090565b600080fd5b600080fd5b6105c081610514565b81146105cb57600080fd5b50565b6000813590506105dd816105b7565b92915050565b6000602082840312156105f9576105f86105ad565b5b6000610607848285016105ce565b91505092915050565b600073ffffffffffffffffffffffffffffffffffffffff82169050919050565b600061063b82610610565b9050919050565b61064b81610630565b82525050565b60006020820190506106666000830184610642565b92915050565b600081519050919050565b600082825260208201905092915050565b60005b838110156106a657808201518184015260208101905061068b565b838111156106b5576000848401525b50505050565b6000601f19601f8301169050919050565b60006106d78261066c565b6106e18185610677565b93506106f1818560208601610688565b6106fa816106bb565b840191505092915050565b6000602082019050818103600083015261071f81846106cc565b905092915050565b61073081610514565b82525050565b600060208201905061074b6000830184610727565b92915050565b61075a81610630565b811461076557600080fd5b50565b60008135905061077781610751565b92915050565b600060208284031215610793576107926105ad565b5b60006107a184828501610768565b91505092915050565b600080fd5b600080fd5b7f4e487b7100000000000000000000000000000000000000000000000000000000600052604160045260246000fd5b6107ec826106bb565b810181811067ffffffffffffffff8211171561080b5761080a6107b4565b5b80604052505050565b600061081e6105a3565b905061082a82826107e3565b919050565b600067ffffffffffffffff82111561084a576108496107b4565b5b610853826106bb565b9050602081019050919050565b82818337600083830152505050565b600061088261087d8461082f565b610814565b90508281526020810184848401111561089e5761089d6107af565b5b6108a9848285610860565b509392505050565b600082601f8301126108c6576108c56107aa565b5b81356108d684826020860161086f565b91505092915050565b6000602082840312156108f5576108f46105ad565b5b600082013567ffffffffffffffff811115610913576109126105b2565b5b61091f848285016108b1565b91505092915050565b7f4d757374206265203c3d20546f74616c46756e64730000000000000000000000600082015250565b600061095e601583610677565b915061096982610928565b602082019050919050565b6000602082019050818103600083015261098d81610951565b9050919050565b600061099f82610514565b91506109aa83610514565b9250828210156109bd576109bc61051e565b5b828203905092915050565b7f4e487b7100000000000000000000000000000000000000000000000000000000600052602260045260246000fd5b60006002820490506001821680610a0f57607f821691505b60208210811415610a2357610a226109c8565b5b5091905056fea2646970667358221220f2debc9da79a95e8d67f7f04ff2b193ab8990f68170cbd08bee93b396267af9f64736f6c634300080a0033",
  "immutableReferences": {},
  "source": "// SPDX-License-Identifier: GPL-3.0\npragma solidity >=0.7.0 <0.9.0;\n\ncontract Donatee {\n\n    string private name;\n    string private location;\n    uint256 private totalFunds = 0;\n    address private addr;\n\n    // Function to receive Ether. msg.data must be empty\n    receive() external payable {\n        totalFunds += msg.value;\n    }\n\n    // Fallback function is called when msg.data is not empty\n    fallback() external payable {\n        totalFunds += msg.value;\n    }\n\n    function receiveDonation(uint256 _amount) external payable{\n        totalFunds += _amount;\n    }\n\n    function withdraw(uint256 _amount) external payable {\n        require(_amount <= totalFunds, \"Must be <= TotalFunds\");\n        totalFunds -= _amount;\n    }\n\n    function setDonateeName(string memory _name) public {\n        name = _name;\n    }\n\n    function setDonateeLocation(string memory _location) public {\n        location = _location;\n    }\n\n    function getDonateeName() public view returns (string memory) {\n        return name;\n    }\n\n    function getDonateeLocation() public view returns (string memory) {\n        return location;\n    }\n\n    function setDonateeAddr(address _addr) public {\n        addr = _addr;\n    }\n\n    function getDonateeAddr() public view returns(address) {\n        return addr;\n    }\n\n    function getDonateeTotalFunds() public view returns(uint256 ) {\n        return totalFunds;\n    }\n}",
  "sourcePath": "/home/blackdracula/semester/blockchain/project/blockchain-application/contracts/Donatee.sol",
  "compiler": {
    "name": "solc",
    "version": "0.8.10+commit.fc410830.Emscripten.clang"
  },
  "schemaVersion": "3.4.4",
  "updatedAt": "2022-01-30T12:25:58.426Z",
  "devdoc": {
    "kind": "dev",
    "methods": {},
    "version": 1
  },
  "userdoc": {
    "kind": "user",
    "methods": {},
    "version": 1
  }
}