{
  "contractName": "Donatee",
  "abi": [
    {
      "inputs": [
        {
          "internalType": "uint256",
          "name": "_amount",
          "type": "uint256"
        }
      ],
      "name": "receiveDonation",
      "outputs": [],
      "stateMutability": "payable",
      "type": "function",
      "payable": true
    },
    {
      "inputs": [
        {
          "internalType": "uint256",
          "name": "_amount",
          "type": "uint256"
        }
      ],
      "name": "withdraw",
      "outputs": [],
      "stateMutability": "payable",
      "type": "function",
      "payable": true
    },
    {
      "inputs": [],
      "name": "showBalance",
      "outputs": [
        {
          "internalType": "uint256",
          "name": "",
          "type": "uint256"
        }
      ],
      "stateMutability": "view",
      "type": "function",
      "constant": true
    },
    {
      "inputs": [
        {
          "internalType": "string",
          "name": "_name",
          "type": "string"
        }
      ],
      "name": "setDonateeName",
      "outputs": [],
      "stateMutability": "nonpayable",
      "type": "function"
    },
    {
      "inputs": [
        {
          "internalType": "string",
          "name": "_location",
          "type": "string"
        }
      ],
      "name": "setDonateeLocation",
      "outputs": [],
      "stateMutability": "nonpayable",
      "type": "function"
    },
    {
      "inputs": [],
      "name": "getDonateeName",
      "outputs": [
        {
          "internalType": "string",
          "name": "",
          "type": "string"
        }
      ],
      "stateMutability": "view",
      "type": "function",
      "constant": true
    },
    {
      "inputs": [],
      "name": "getDonateeLocation",
      "outputs": [
        {
          "internalType": "string",
          "name": "",
          "type": "string"
        }
      ],
      "stateMutability": "view",
      "type": "function",
      "constant": true
    },
    {
      "inputs": [
        {
          "internalType": "address",
          "name": "_addr",
          "type": "address"
        }
      ],
      "name": "setDonateeAddr",
      "outputs": [],
      "stateMutability": "nonpayable",
      "type": "function"
    },
    {
      "inputs": [],
      "name": "getDonateeAddr",
      "outputs": [
        {
          "internalType": "address",
          "name": "",
          "type": "address"
        }
      ],
      "stateMutability": "view",
      "type": "function",
      "constant": true
    },
    {
      "inputs": [],
      "name": "getDonateeTotalFunds",
      "outputs": [
        {
          "internalType": "uint256",
          "name": "",
          "type": "uint256"
        }
      ],
      "stateMutability": "view",
      "type": "function",
      "constant": true
    }
  ],
  "bytecode": "0x6080604052600060025534801561001557600080fd5b50610a65806100256000396000f3fe6080604052600436106100915760003560e01c8063d324b18b11610059578063d324b18b1461015e578063d70c03bc14610187578063da6d7e8d146101a3578063e6ade3b9146101cc578063e911bd0a146101f757610091565b80632e1a7d4d146100965780634a429881146100b257806381b2d07b146100dd578063865a2e51146101085780638a6cd9f014610133575b600080fd5b6100b060048036038101906100ab9190610564565b610220565b005b3480156100be57600080fd5b506100c7610281565b6040516100d491906105d2565b60405180910390f35b3480156100e957600080fd5b506100f26102ab565b6040516100ff91906105fc565b60405180910390f35b34801561011457600080fd5b5061011d6102b5565b60405161012a91906106b0565b60405180910390f35b34801561013f57600080fd5b50610148610347565b60405161015591906105fc565b60405180910390f35b34801561016a57600080fd5b50610185600480360381019061018091906106fe565b610351565b005b6101a1600480360381019061019c9190610564565b610395565b005b3480156101af57600080fd5b506101ca60048036038101906101c59190610860565b6103b1565b005b3480156101d857600080fd5b506101e16103cb565b6040516101ee91906106b0565b60405180910390f35b34801561020357600080fd5b5061021e60048036038101906102199190610860565b61045d565b005b600254811115610265576040517f08c379a000000000000000000000000000000000000000000000000000000000815260040161025c906108f5565b60405180910390fd5b80600260008282546102779190610944565b9250508190555050565b6000600360009054906101000a900473ffffffffffffffffffffffffffffffffffffffff16905090565b6000600254905090565b6060600080546102c4906109a7565b80601f01602080910402602001604051908101604052809291908181526020018280546102f0906109a7565b801561033d5780601f106103125761010080835404028352916020019161033d565b820191906000526020600020905b81548152906001019060200180831161032057829003601f168201915b5050505050905090565b6000600254905090565b80600360006101000a81548173ffffffffffffffffffffffffffffffffffffffff021916908373ffffffffffffffffffffffffffffffffffffffff16021790555050565b80600260008282546103a791906109d9565b9250508190555050565b80600090805190602001906103c7929190610477565b5050565b6060600180546103da906109a7565b80601f0160208091040260200160405190810160405280929190818152602001828054610406906109a7565b80156104535780601f1061042857610100808354040283529160200191610453565b820191906000526020600020905b81548152906001019060200180831161043657829003601f168201915b5050505050905090565b8060019080519060200190610473929190610477565b5050565b828054610483906109a7565b90600052602060002090601f0160209004810192826104a557600085556104ec565b82601f106104be57805160ff19168380011785556104ec565b828001600101855582156104ec579182015b828111156104eb5782518255916020019190600101906104d0565b5b5090506104f991906104fd565b5090565b5b808211156105165760008160009055506001016104fe565b5090565b6000604051905090565b600080fd5b600080fd5b6000819050919050565b6105418161052e565b811461054c57600080fd5b50565b60008135905061055e81610538565b92915050565b60006020828403121561057a57610579610524565b5b60006105888482850161054f565b91505092915050565b600073ffffffffffffffffffffffffffffffffffffffff82169050919050565b60006105bc82610591565b9050919050565b6105cc816105b1565b82525050565b60006020820190506105e760008301846105c3565b92915050565b6105f68161052e565b82525050565b600060208201905061061160008301846105ed565b92915050565b600081519050919050565b600082825260208201905092915050565b60005b83811015610651578082015181840152602081019050610636565b83811115610660576000848401525b50505050565b6000601f19601f8301169050919050565b600061068282610617565b61068c8185610622565b935061069c818560208601610633565b6106a581610666565b840191505092915050565b600060208201905081810360008301526106ca8184610677565b905092915050565b6106db816105b1565b81146106e657600080fd5b50565b6000813590506106f8816106d2565b92915050565b60006020828403121561071457610713610524565b5b6000610722848285016106e9565b91505092915050565b600080fd5b600080fd5b7f4e487b7100000000000000000000000000000000000000000000000000000000600052604160045260246000fd5b61076d82610666565b810181811067ffffffffffffffff8211171561078c5761078b610735565b5b80604052505050565b600061079f61051a565b90506107ab8282610764565b919050565b600067ffffffffffffffff8211156107cb576107ca610735565b5b6107d482610666565b9050602081019050919050565b82818337600083830152505050565b60006108036107fe846107b0565b610795565b90508281526020810184848401111561081f5761081e610730565b5b61082a8482856107e1565b509392505050565b600082601f8301126108475761084661072b565b5b81356108578482602086016107f0565b91505092915050565b60006020828403121561087657610875610524565b5b600082013567ffffffffffffffff81111561089457610893610529565b5b6108a084828501610832565b91505092915050565b7f4d757374206265203c3d20546f74616c46756e64730000000000000000000000600082015250565b60006108df601583610622565b91506108ea826108a9565b602082019050919050565b6000602082019050818103600083015261090e816108d2565b9050919050565b7f4e487b7100000000000000000000000000000000000000000000000000000000600052601160045260246000fd5b600061094f8261052e565b915061095a8361052e565b92508282101561096d5761096c610915565b5b828203905092915050565b7f4e487b7100000000000000000000000000000000000000000000000000000000600052602260045260246000fd5b600060028204905060018216806109bf57607f821691505b602082108114156109d3576109d2610978565b5b50919050565b60006109e48261052e565b91506109ef8361052e565b9250827fffffffffffffffffffffffffffffffffffffffffffffffffffffffffffffffff03821115610a2457610a23610915565b5b82820190509291505056fea2646970667358221220ba46fc482423e036ffc3d7ba8a69cf35574ecc13fb0c6ca3e8efc1dba5bd86df64736f6c634300080a0033",
  "immutableReferences": {},
  "source": "// SPDX-License-Identifier: GPL-3.0\npragma solidity >=0.7.0 <0.9.0;\n\ncontract Donatee {\n\n    string private name;\n    string private location;\n    uint256 private totalFunds = 0;\n    address private addr;\n\n    function receiveDonation(uint256 _amount) external payable{\n        totalFunds += _amount;\n    }\n\n    function withdraw(uint256 _amount) external payable {\n        require(_amount <= totalFunds, \"Must be <= TotalFunds\");\n        totalFunds -= _amount;\n    }\n\n    function showBalance() public view returns (uint256) {\n        return totalFunds;\n    }\n\n    function setDonateeName(string memory _name) public {\n        name = _name;\n    }\n\n    function setDonateeLocation(string memory _location) public {\n        location = _location;\n    }\n\n    function getDonateeName() public view returns (string memory) {\n        return name;\n    }\n\n    function getDonateeLocation() public view returns (string memory) {\n        return location;\n    }\n\n    function setDonateeAddr(address _addr) public {\n        addr = _addr;\n    }\n\n    function getDonateeAddr() public view returns(address) {\n        return addr;\n    }\n\n    function getDonateeTotalFunds() public view returns(uint256 ) {\n        return totalFunds;\n    }\n}",
  "sourcePath": "/home/blackdracula/semester/blockchain/project/blockchain-application/contracts/Donatee.sol",
  "compiler": {
    "name": "solc",
    "version": "0.8.10+commit.fc410830.Emscripten.clang"
  },
  "schemaVersion": "3.4.4",
  "updatedAt": "2022-01-15T11:48:25.734Z",
  "networkType": "ethereum",
  "devdoc": {
    "kind": "dev",
    "methods": {},
    "version": 1
  },
  "userdoc": {
    "kind": "user",
    "methods": {},
    "version": 1
  }
}