{
  "contractName": "NGOrganization",
  "abi": [
    {
      "inputs": [
        {
          "internalType": "string",
          "name": "_user",
          "type": "string"
        }
      ],
      "stateMutability": "nonpayable",
      "type": "constructor"
    },
    {
      "inputs": [],
      "name": "_instance",
      "outputs": [
        {
          "internalType": "contract Donatee",
          "name": "",
          "type": "address"
        }
      ],
      "stateMutability": "view",
      "type": "function",
      "constant": true
    },
    {
      "inputs": [
        {
          "internalType": "address",
          "name": "donoraddr",
          "type": "address"
        },
        {
          "internalType": "uint256",
          "name": "_amount",
          "type": "uint256"
        }
      ],
      "name": "DONATE",
      "outputs": [],
      "stateMutability": "payable",
      "type": "function",
      "payable": true
    },
    {
      "inputs": [],
      "name": "getNGOFunds",
      "outputs": [
        {
          "internalType": "uint256",
          "name": "",
          "type": "uint256"
        }
      ],
      "stateMutability": "view",
      "type": "function",
      "constant": true
    },
    {
      "inputs": [],
      "name": "getSusFunds",
      "outputs": [
        {
          "internalType": "uint256",
          "name": "",
          "type": "uint256"
        }
      ],
      "stateMutability": "view",
      "type": "function",
      "constant": true
    },
    {
      "inputs": [],
      "name": "getThreshold",
      "outputs": [
        {
          "internalType": "uint256",
          "name": "",
          "type": "uint256"
        }
      ],
      "stateMutability": "view",
      "type": "function",
      "constant": true
    },
    {
      "inputs": [],
      "name": "getMaxValue",
      "outputs": [
        {
          "internalType": "uint256",
          "name": "",
          "type": "uint256"
        }
      ],
      "stateMutability": "view",
      "type": "function",
      "constant": true
    },
    {
      "inputs": [],
      "name": "getDonors",
      "outputs": [
        {
          "internalType": "address[]",
          "name": "",
          "type": "address[]"
        }
      ],
      "stateMutability": "view",
      "type": "function",
      "constant": true
    },
    {
      "inputs": [],
      "name": "getDonatees",
      "outputs": [
        {
          "internalType": "address[]",
          "name": "",
          "type": "address[]"
        }
      ],
      "stateMutability": "view",
      "type": "function",
      "constant": true
    },
    {
      "inputs": [],
      "name": "getLaundry",
      "outputs": [
        {
          "internalType": "address[]",
          "name": "",
          "type": "address[]"
        }
      ],
      "stateMutability": "view",
      "type": "function",
      "constant": true
    },
    {
      "inputs": [],
      "name": "getUser",
      "outputs": [
        {
          "internalType": "string",
          "name": "",
          "type": "string"
        }
      ],
      "stateMutability": "view",
      "type": "function",
      "constant": true
    },
    {
      "inputs": [
        {
          "internalType": "string",
          "name": "_user",
          "type": "string"
        }
      ],
      "name": "setUser",
      "outputs": [],
      "stateMutability": "nonpayable",
      "type": "function"
    },
    {
      "inputs": [
        {
          "internalType": "uint256",
          "name": "_amount",
          "type": "uint256"
        }
      ],
      "name": "giveToDonatee",
      "outputs": [],
      "stateMutability": "payable",
      "type": "function",
      "payable": true
    },
    {
      "inputs": [
        {
          "internalType": "uint256",
          "name": "_amount",
          "type": "uint256"
        }
      ],
      "name": "withdrawDonatee",
      "outputs": [],
      "stateMutability": "payable",
      "type": "function",
      "payable": true
    },
    {
      "inputs": [],
      "name": "donateeShowBalance",
      "outputs": [
        {
          "internalType": "uint256",
          "name": "",
          "type": "uint256"
        }
      ],
      "stateMutability": "view",
      "type": "function",
      "constant": true
    },
    {
      "inputs": [
        {
          "internalType": "string",
          "name": "_name",
          "type": "string"
        }
      ],
      "name": "setDonorName",
      "outputs": [],
      "stateMutability": "nonpayable",
      "type": "function"
    },
    {
      "inputs": [
        {
          "internalType": "string",
          "name": "_location",
          "type": "string"
        }
      ],
      "name": "setDonorLocation",
      "outputs": [],
      "stateMutability": "nonpayable",
      "type": "function"
    },
    {
      "inputs": [],
      "name": "getDonorName",
      "outputs": [
        {
          "internalType": "string",
          "name": "",
          "type": "string"
        }
      ],
      "stateMutability": "view",
      "type": "function",
      "constant": true
    },
    {
      "inputs": [],
      "name": "getDonorLocation",
      "outputs": [
        {
          "internalType": "string",
          "name": "",
          "type": "string"
        }
      ],
      "stateMutability": "view",
      "type": "function",
      "constant": true
    },
    {
      "inputs": [
        {
          "internalType": "address",
          "name": "_addr",
          "type": "address"
        },
        {
          "internalType": "string",
          "name": "_name",
          "type": "string"
        },
        {
          "internalType": "string",
          "name": "_location",
          "type": "string"
        }
      ],
      "name": "setDonateeInfo",
      "outputs": [],
      "stateMutability": "nonpayable",
      "type": "function"
    },
    {
      "inputs": [],
      "name": "getDonateeInfo",
      "outputs": [
        {
          "internalType": "address",
          "name": "",
          "type": "address"
        },
        {
          "internalType": "string",
          "name": "",
          "type": "string"
        },
        {
          "internalType": "string",
          "name": "",
          "type": "string"
        },
        {
          "internalType": "uint256",
          "name": "",
          "type": "uint256"
        }
      ],
      "stateMutability": "view",
      "type": "function",
      "constant": true
    }
  ],
  "bytecode": "0x6080604052600a600755600060085560006009556032600a553480156200002557600080fd5b5060405162002c1038038062002c1083398181016040528101906200004b91906200040c565b33600260006101000a81548173ffffffffffffffffffffffffffffffffffffffff021916908373ffffffffffffffffffffffffffffffffffffffff1602179055508060069080519060200190620000a4929190620001b1565b50604051620000b39062000242565b604051809103906000f080158015620000d0573d6000803e3d6000fd5b50600b60006101000a81548173ffffffffffffffffffffffffffffffffffffffff021916908373ffffffffffffffffffffffffffffffffffffffff16021790555062000144600b60009054906101000a900473ffffffffffffffffffffffffffffffffffffffff166200014b60201b60201c565b50620004c2565b6001819080600181540180825580915050600190039060005260206000200160009091909190916101000a81548173ffffffffffffffffffffffffffffffffffffffff021916908373ffffffffffffffffffffffffffffffffffffffff16021790555050565b828054620001bf906200048c565b90600052602060002090601f016020900481019282620001e357600085556200022f565b82601f10620001fe57805160ff19168380011785556200022f565b828001600101855582156200022f579182015b828111156200022e57825182559160200191906001019062000211565b5b5090506200023e919062000250565b5090565b610a8a806200218683390190565b5b808211156200026b57600081600090555060010162000251565b5090565b6000604051905090565b600080fd5b600080fd5b600080fd5b600080fd5b6000601f19601f8301169050919050565b7f4e487b7100000000000000000000000000000000000000000000000000000000600052604160045260246000fd5b620002d8826200028d565b810181811067ffffffffffffffff82111715620002fa57620002f96200029e565b5b80604052505050565b60006200030f6200026f565b90506200031d8282620002cd565b919050565b600067ffffffffffffffff82111562000340576200033f6200029e565b5b6200034b826200028d565b9050602081019050919050565b60005b83811015620003785780820151818401526020810190506200035b565b8381111562000388576000848401525b50505050565b6000620003a56200039f8462000322565b62000303565b905082815260208101848484011115620003c457620003c362000288565b5b620003d184828562000358565b509392505050565b600082601f830112620003f157620003f062000283565b5b8151620004038482602086016200038e565b91505092915050565b60006020828403121562000425576200042462000279565b5b600082015167ffffffffffffffff8111156200044657620004456200027e565b5b6200045484828501620003d9565b91505092915050565b7f4e487b7100000000000000000000000000000000000000000000000000000000600052602260045260246000fd5b60006002820490506001821680620004a557607f821691505b60208210811415620004bc57620004bb6200045d565b5b50919050565b611cb480620004d26000396000f3fe60806040526004361061011f5760003560e01c806356c03c74116100a057806396f300d41161006457806396f300d41461037b578063c61dc45f146103a6578063d0020fad146103d1578063e75235b8146103fa578063f0737028146104255761011f565b806356c03c74146102b357806368c87941146102de578063832880e7146102fa5780638c69b7b41461032557806394bc2969146103505761011f565b8063341f61c7116100e7578063341f61c7146101e0578063346079941461020b5780633af2c0c1146102345780633e9f536a1461025d5780634c9eb4d4146102885761011f565b8063101205501461012457806311dbcb651461015257806314ee2e0e1461016e5780631aca08301461018a57806330238a8f146101b5575b600080fd5b34801561013057600080fd5b5061013961044e565b60405161014994939291906112d8565b60405180910390f35b61016c6004803603810190610167919061136b565b6106b1565b005b610188600480360381019061018391906113c4565b610741565b005b34801561019657600080fd5b5061019f610899565b6040516101ac91906114c2565b60405180910390f35b3480156101c157600080fd5b506101ca610927565b6040516101d791906114e4565b60405180910390f35b3480156101ec57600080fd5b506101f56109b9565b6040516102029190611506565b60405180910390f35b34801561021757600080fd5b50610232600480360381019061022d9190611656565b6109c3565b005b34801561024057600080fd5b5061025b6004803603810190610256919061169f565b6109dd565b005b34801561026957600080fd5b50610272610b89565b60405161027f9190611789565b60405180910390f35b34801561029457600080fd5b5061029d610baf565b6040516102aa9190611506565b60405180910390f35b3480156102bf57600080fd5b506102c8610bb9565b6040516102d591906114e4565b60405180910390f35b6102f860048036038101906102f3919061136b565b610c4b565b005b34801561030657600080fd5b5061030f610d39565b60405161031c91906114e4565b60405180910390f35b34801561033157600080fd5b5061033a610dcb565b6040516103479190611506565b60405180910390f35b34801561035c57600080fd5b50610365610e63565b60405161037291906114c2565b60405180910390f35b34801561038757600080fd5b50610390610ef1565b60405161039d91906114c2565b60405180910390f35b3480156103b257600080fd5b506103bb610f7f565b6040516103c89190611506565b60405180910390f35b3480156103dd57600080fd5b506103f860048036038101906103f39190611656565b610f89565b005b34801561040657600080fd5b5061040f611033565b60405161041c9190611506565b60405180910390f35b34801561043157600080fd5b5061044c60048036038101906104479190611656565b61103d565b005b60006060806000600b60009054906101000a900473ffffffffffffffffffffffffffffffffffffffff1673ffffffffffffffffffffffffffffffffffffffff16634a4298816040518163ffffffff1660e01b8152600401602060405180830381865afa1580156104c2573d6000803e3d6000fd5b505050506040513d601f19601f820116820180604052508101906104e691906117b9565b600b60009054906101000a900473ffffffffffffffffffffffffffffffffffffffff1673ffffffffffffffffffffffffffffffffffffffff1663865a2e516040518163ffffffff1660e01b8152600401600060405180830381865afa158015610553573d6000803e3d6000fd5b505050506040513d6000823e3d601f19601f8201168201806040525081019061057c9190611856565b600b60009054906101000a900473ffffffffffffffffffffffffffffffffffffffff1673ffffffffffffffffffffffffffffffffffffffff1663e6ade3b96040518163ffffffff1660e01b8152600401600060405180830381865afa1580156105e9573d6000803e3d6000fd5b505050506040513d6000823e3d601f19601f820116820180604052508101906106129190611856565b600b60009054906101000a900473ffffffffffffffffffffffffffffffffffffffff1673ffffffffffffffffffffffffffffffffffffffff16638a6cd9f06040518163ffffffff1660e01b8152600401602060405180830381865afa15801561067f573d6000803e3d6000fd5b505050506040513d601f19601f820116820180604052508101906106a391906118b4565b935093509350935090919293565b600b60009054906101000a900473ffffffffffffffffffffffffffffffffffffffff1673ffffffffffffffffffffffffffffffffffffffff16632e1a7d4d826040518263ffffffff1660e01b815260040161070c9190611506565b600060405180830381600087803b15801561072657600080fd5b505af115801561073a573d6000803e3d6000fd5b5050505050565b600073ffffffffffffffffffffffffffffffffffffffff168273ffffffffffffffffffffffffffffffffffffffff1614156107b1576040517f08c379a00000000000000000000000000000000000000000000000000000000081526004016107a89061192d565b60405180910390fd5b60018110156107f5576040517f08c379a00000000000000000000000000000000000000000000000000000000081526004016107ec90611999565b60405180910390fd5b6107fd611057565b61083c576040517f08c379a000000000000000000000000000000000000000000000000000000000815260040161083390611a51565b60405180910390fd5b6007548111156108695761084f82611076565b80600960008282546108619190611aa0565b925050819055505b60075481116108955761087b826110dc565b806008600082825461088d9190611aa0565b925050819055505b5050565b6060600380548060200260200160405190810160405280929190818152602001828054801561091d57602002820191906000526020600020905b8160009054906101000a900473ffffffffffffffffffffffffffffffffffffffff1673ffffffffffffffffffffffffffffffffffffffff16815260200190600101908083116108d3575b5050505050905090565b60606004805461093690611b25565b80601f016020809104026020016040519081016040528092919081815260200182805461096290611b25565b80156109af5780601f10610984576101008083540402835291602001916109af565b820191906000526020600020905b81548152906001019060200180831161099257829003601f168201915b5050505050905090565b6000600854905090565b80600490805190602001906109d9929190611142565b5050565b600b60009054906101000a900473ffffffffffffffffffffffffffffffffffffffff1673ffffffffffffffffffffffffffffffffffffffff1663d324b18b846040518263ffffffff1660e01b8152600401610a389190611b57565b600060405180830381600087803b158015610a5257600080fd5b505af1158015610a66573d6000803e3d6000fd5b50505050600b60009054906101000a900473ffffffffffffffffffffffffffffffffffffffff1673ffffffffffffffffffffffffffffffffffffffff1663da6d7e8d836040518263ffffffff1660e01b8152600401610ac591906114e4565b600060405180830381600087803b158015610adf57600080fd5b505af1158015610af3573d6000803e3d6000fd5b50505050600b60009054906101000a900473ffffffffffffffffffffffffffffffffffffffff1673ffffffffffffffffffffffffffffffffffffffff1663e911bd0a826040518263ffffffff1660e01b8152600401610b5291906114e4565b600060405180830381600087803b158015610b6c57600080fd5b505af1158015610b80573d6000803e3d6000fd5b50505050505050565b600b60009054906101000a900473ffffffffffffffffffffffffffffffffffffffff1681565b6000600a54905090565b606060058054610bc890611b25565b80601f0160208091040260200160405190810160405280929190818152602001828054610bf490611b25565b8015610c415780601f10610c1657610100808354040283529160200191610c41565b820191906000526020600020905b815481529060010190602001808311610c2457829003601f168201915b5050505050905090565b600854811115610c90576040517f08c379a0000000000000000000000000000000000000000000000000000000008152600401610c8790611bbe565b60405180910390fd5b600b60009054906101000a900473ffffffffffffffffffffffffffffffffffffffff1673ffffffffffffffffffffffffffffffffffffffff1663d70c03bc826040518263ffffffff1660e01b8152600401610ceb9190611506565b600060405180830381600087803b158015610d0557600080fd5b505af1158015610d19573d6000803e3d6000fd5b505050508060086000828254610d2f9190611bde565b9250508190555050565b606060068054610d4890611b25565b80601f0160208091040260200160405190810160405280929190818152602001828054610d7490611b25565b8015610dc15780601f10610d9657610100808354040283529160200191610dc1565b820191906000526020600020905b815481529060010190602001808311610da457829003601f168201915b5050505050905090565b6000600b60009054906101000a900473ffffffffffffffffffffffffffffffffffffffff1673ffffffffffffffffffffffffffffffffffffffff166381b2d07b6040518163ffffffff1660e01b8152600401602060405180830381865afa158015610e3a573d6000803e3d6000fd5b505050506040513d601f19601f82011682018060405250810190610e5e91906118b4565b905090565b60606001805480602002602001604051908101604052809291908181526020018280548015610ee757602002820191906000526020600020905b8160009054906101000a900473ffffffffffffffffffffffffffffffffffffffff1673ffffffffffffffffffffffffffffffffffffffff1681526020019060010190808311610e9d575b5050505050905090565b60606000805480602002602001604051908101604052809291908181526020018280548015610f7557602002820191906000526020600020905b8160009054906101000a900473ffffffffffffffffffffffffffffffffffffffff1673ffffffffffffffffffffffffffffffffffffffff1681526020019060010190808311610f2b575b5050505050905090565b6000600954905090565b600260009054906101000a900473ffffffffffffffffffffffffffffffffffffffff1673ffffffffffffffffffffffffffffffffffffffff163373ffffffffffffffffffffffffffffffffffffffff1614611019576040517f08c379a000000000000000000000000000000000000000000000000000000000815260040161101090611c5e565b60405180910390fd5b806006908051906020019061102f929190611142565b5050565b6000600754905090565b8060059080519060200190611053929190611142565b5050565b6000600a54600854101561106e5760019050611073565b600090505b90565b6003819080600181540180825580915050600190039060005260206000200160009091909190916101000a81548173ffffffffffffffffffffffffffffffffffffffff021916908373ffffffffffffffffffffffffffffffffffffffff16021790555050565b6000819080600181540180825580915050600190039060005260206000200160009091909190916101000a81548173ffffffffffffffffffffffffffffffffffffffff021916908373ffffffffffffffffffffffffffffffffffffffff16021790555050565b82805461114e90611b25565b90600052602060002090601f01602090048101928261117057600085556111b7565b82601f1061118957805160ff19168380011785556111b7565b828001600101855582156111b7579182015b828111156111b657825182559160200191906001019061119b565b5b5090506111c491906111c8565b5090565b5b808211156111e15760008160009055506001016111c9565b5090565b600073ffffffffffffffffffffffffffffffffffffffff82169050919050565b6000611210826111e5565b9050919050565b61122081611205565b82525050565b600081519050919050565b600082825260208201905092915050565b60005b83811015611260578082015181840152602081019050611245565b8381111561126f576000848401525b50505050565b6000601f19601f8301169050919050565b600061129182611226565b61129b8185611231565b93506112ab818560208601611242565b6112b481611275565b840191505092915050565b6000819050919050565b6112d2816112bf565b82525050565b60006080820190506112ed6000830187611217565b81810360208301526112ff8186611286565b905081810360408301526113138185611286565b905061132260608301846112c9565b95945050505050565b6000604051905090565b600080fd5b600080fd5b611348816112bf565b811461135357600080fd5b50565b6000813590506113658161133f565b92915050565b60006020828403121561138157611380611335565b5b600061138f84828501611356565b91505092915050565b6113a181611205565b81146113ac57600080fd5b50565b6000813590506113be81611398565b92915050565b600080604083850312156113db576113da611335565b5b60006113e9858286016113af565b92505060206113fa85828601611356565b9150509250929050565b600081519050919050565b600082825260208201905092915050565b6000819050602082019050919050565b61143981611205565b82525050565b600061144b8383611430565b60208301905092915050565b6000602082019050919050565b600061146f82611404565b611479818561140f565b935061148483611420565b8060005b838110156114b557815161149c888261143f565b97506114a783611457565b925050600181019050611488565b5085935050505092915050565b600060208201905081810360008301526114dc8184611464565b905092915050565b600060208201905081810360008301526114fe8184611286565b905092915050565b600060208201905061151b60008301846112c9565b92915050565b600080fd5b600080fd5b7f4e487b7100000000000000000000000000000000000000000000000000000000600052604160045260246000fd5b61156382611275565b810181811067ffffffffffffffff821117156115825761158161152b565b5b80604052505050565b600061159561132b565b90506115a1828261155a565b919050565b600067ffffffffffffffff8211156115c1576115c061152b565b5b6115ca82611275565b9050602081019050919050565b82818337600083830152505050565b60006115f96115f4846115a6565b61158b565b90508281526020810184848401111561161557611614611526565b5b6116208482856115d7565b509392505050565b600082601f83011261163d5761163c611521565b5b813561164d8482602086016115e6565b91505092915050565b60006020828403121561166c5761166b611335565b5b600082013567ffffffffffffffff81111561168a5761168961133a565b5b61169684828501611628565b91505092915050565b6000806000606084860312156116b8576116b7611335565b5b60006116c6868287016113af565b935050602084013567ffffffffffffffff8111156116e7576116e661133a565b5b6116f386828701611628565b925050604084013567ffffffffffffffff8111156117145761171361133a565b5b61172086828701611628565b9150509250925092565b6000819050919050565b600061174f61174a611745846111e5565b61172a565b6111e5565b9050919050565b600061176182611734565b9050919050565b600061177382611756565b9050919050565b61178381611768565b82525050565b600060208201905061179e600083018461177a565b92915050565b6000815190506117b381611398565b92915050565b6000602082840312156117cf576117ce611335565b5b60006117dd848285016117a4565b91505092915050565b60006117f96117f4846115a6565b61158b565b90508281526020810184848401111561181557611814611526565b5b611820848285611242565b509392505050565b600082601f83011261183d5761183c611521565b5b815161184d8482602086016117e6565b91505092915050565b60006020828403121561186c5761186b611335565b5b600082015167ffffffffffffffff81111561188a5761188961133a565b5b61189684828501611828565b91505092915050565b6000815190506118ae8161133f565b92915050565b6000602082840312156118ca576118c9611335565b5b60006118d88482850161189f565b91505092915050565b7f506c7320656e74657220796f757220657468657269756d206164647200000000600082015250565b6000611917601c83611231565b9150611922826118e1565b602082019050919050565b600060208201905081810360008301526119468161190a565b9050919050565b7f506c7320456e74657220616e20696e7465676572206e756d6265720000000000600082015250565b6000611983601b83611231565b915061198e8261194d565b602082019050919050565b600060208201905081810360008301526119b281611976565b9050919050565b7f0a45766572796f6e652077696c6c20626520616c65727420696e20746865204e60008201527f6574776f726b0a5468697320706c6163652069736e2774206c61756e6472792060208201527f506c732121210000000000000000000000000000000000000000000000000000604082015250565b6000611a3b604683611231565b9150611a46826119b9565b606082019050919050565b60006020820190508181036000830152611a6a81611a2e565b9050919050565b7f4e487b7100000000000000000000000000000000000000000000000000000000600052601160045260246000fd5b6000611aab826112bf565b9150611ab6836112bf565b9250827fffffffffffffffffffffffffffffffffffffffffffffffffffffffffffffffff03821115611aeb57611aea611a71565b5b828201905092915050565b7f4e487b7100000000000000000000000000000000000000000000000000000000600052602260045260246000fd5b60006002820490506001821680611b3d57607f821691505b60208210811415611b5157611b50611af6565b5b50919050565b6000602082019050611b6c6000830184611217565b92915050565b7f506c7320456e7465722066756e6473203c3d20746f74616c66756e6473000000600082015250565b6000611ba8601d83611231565b9150611bb382611b72565b602082019050919050565b60006020820190508181036000830152611bd781611b9b565b9050919050565b6000611be9826112bf565b9150611bf4836112bf565b925082821015611c0757611c06611a71565b5b828203905092915050565b7f4e6f7420746865206f776e657200000000000000000000000000000000000000600082015250565b6000611c48600d83611231565b9150611c5382611c12565b602082019050919050565b60006020820190508181036000830152611c7781611c3b565b905091905056fea264697066735822122063e91a373738429ccc05e4cafe775b98e718b11b42dd422348f85db6e9bb7a8c64736f6c634300080a00336080604052600060025534801561001557600080fd5b50610a65806100256000396000f3fe6080604052600436106100915760003560e01c8063d324b18b11610059578063d324b18b1461015e578063d70c03bc14610187578063da6d7e8d146101a3578063e6ade3b9146101cc578063e911bd0a146101f757610091565b80632e1a7d4d146100965780634a429881146100b257806381b2d07b146100dd578063865a2e51146101085780638a6cd9f014610133575b600080fd5b6100b060048036038101906100ab9190610564565b610220565b005b3480156100be57600080fd5b506100c7610281565b6040516100d491906105d2565b60405180910390f35b3480156100e957600080fd5b506100f26102ab565b6040516100ff91906105fc565b60405180910390f35b34801561011457600080fd5b5061011d6102b5565b60405161012a91906106b0565b60405180910390f35b34801561013f57600080fd5b50610148610347565b60405161015591906105fc565b60405180910390f35b34801561016a57600080fd5b50610185600480360381019061018091906106fe565b610351565b005b6101a1600480360381019061019c9190610564565b610395565b005b3480156101af57600080fd5b506101ca60048036038101906101c59190610860565b6103b1565b005b3480156101d857600080fd5b506101e16103cb565b6040516101ee91906106b0565b60405180910390f35b34801561020357600080fd5b5061021e60048036038101906102199190610860565b61045d565b005b600254811115610265576040517f08c379a000000000000000000000000000000000000000000000000000000000815260040161025c906108f5565b60405180910390fd5b80600260008282546102779190610944565b9250508190555050565b6000600360009054906101000a900473ffffffffffffffffffffffffffffffffffffffff16905090565b6000600254905090565b6060600080546102c4906109a7565b80601f01602080910402602001604051908101604052809291908181526020018280546102f0906109a7565b801561033d5780601f106103125761010080835404028352916020019161033d565b820191906000526020600020905b81548152906001019060200180831161032057829003601f168201915b5050505050905090565b6000600254905090565b80600360006101000a81548173ffffffffffffffffffffffffffffffffffffffff021916908373ffffffffffffffffffffffffffffffffffffffff16021790555050565b80600260008282546103a791906109d9565b9250508190555050565b80600090805190602001906103c7929190610477565b5050565b6060600180546103da906109a7565b80601f0160208091040260200160405190810160405280929190818152602001828054610406906109a7565b80156104535780601f1061042857610100808354040283529160200191610453565b820191906000526020600020905b81548152906001019060200180831161043657829003601f168201915b5050505050905090565b8060019080519060200190610473929190610477565b5050565b828054610483906109a7565b90600052602060002090601f0160209004810192826104a557600085556104ec565b82601f106104be57805160ff19168380011785556104ec565b828001600101855582156104ec579182015b828111156104eb5782518255916020019190600101906104d0565b5b5090506104f991906104fd565b5090565b5b808211156105165760008160009055506001016104fe565b5090565b6000604051905090565b600080fd5b600080fd5b6000819050919050565b6105418161052e565b811461054c57600080fd5b50565b60008135905061055e81610538565b92915050565b60006020828403121561057a57610579610524565b5b60006105888482850161054f565b91505092915050565b600073ffffffffffffffffffffffffffffffffffffffff82169050919050565b60006105bc82610591565b9050919050565b6105cc816105b1565b82525050565b60006020820190506105e760008301846105c3565b92915050565b6105f68161052e565b82525050565b600060208201905061061160008301846105ed565b92915050565b600081519050919050565b600082825260208201905092915050565b60005b83811015610651578082015181840152602081019050610636565b83811115610660576000848401525b50505050565b6000601f19601f8301169050919050565b600061068282610617565b61068c8185610622565b935061069c818560208601610633565b6106a581610666565b840191505092915050565b600060208201905081810360008301526106ca8184610677565b905092915050565b6106db816105b1565b81146106e657600080fd5b50565b6000813590506106f8816106d2565b92915050565b60006020828403121561071457610713610524565b5b6000610722848285016106e9565b91505092915050565b600080fd5b600080fd5b7f4e487b7100000000000000000000000000000000000000000000000000000000600052604160045260246000fd5b61076d82610666565b810181811067ffffffffffffffff8211171561078c5761078b610735565b5b80604052505050565b600061079f61051a565b90506107ab8282610764565b919050565b600067ffffffffffffffff8211156107cb576107ca610735565b5b6107d482610666565b9050602081019050919050565b82818337600083830152505050565b60006108036107fe846107b0565b610795565b90508281526020810184848401111561081f5761081e610730565b5b61082a8482856107e1565b509392505050565b600082601f8301126108475761084661072b565b5b81356108578482602086016107f0565b91505092915050565b60006020828403121561087657610875610524565b5b600082013567ffffffffffffffff81111561089457610893610529565b5b6108a084828501610832565b91505092915050565b7f4d757374206265203c3d20546f74616c46756e64730000000000000000000000600082015250565b60006108df601583610622565b91506108ea826108a9565b602082019050919050565b6000602082019050818103600083015261090e816108d2565b9050919050565b7f4e487b7100000000000000000000000000000000000000000000000000000000600052601160045260246000fd5b600061094f8261052e565b915061095a8361052e565b92508282101561096d5761096c610915565b5b828203905092915050565b7f4e487b7100000000000000000000000000000000000000000000000000000000600052602260045260246000fd5b600060028204905060018216806109bf57607f821691505b602082108114156109d3576109d2610978565b5b50919050565b60006109e48261052e565b91506109ef8361052e565b9250827fffffffffffffffffffffffffffffffffffffffffffffffffffffffffffffffff03821115610a2457610a23610915565b5b82820190509291505056fea2646970667358221220ba46fc482423e036ffc3d7ba8a69cf35574ecc13fb0c6ca3e8efc1dba5bd86df64736f6c634300080a0033",
  "immutableReferences": {},
  "source": "// SPDX-License-Identifier: GPL-3.0\n\nimport \"./Donatee.sol\";\npragma solidity >=0.7.0 <0.9.0;\n\ncontract NGOrganization{\n\n    // all local variables \n    address[] private donors;\n    address[] private donatees;\n    address private owner;\n    address[] private suspectLaundry;\n    string private donorName;\n    string private donorLocation;\n    string private user;\n    uint private threshold = 10;\n    uint private totalFunds = 0;\n    uint private susFunds = 0;\n    uint private maxValue = 50;\n    Donatee public _instance; //instance of donatee obj\n    Donatee private _instance1; //instance of donatee obj1 for truffle testing\n\n    constructor(string memory _user) {\n        owner = msg.sender;\n        user = _user;\n        _instance = new Donatee();\n        // _instance1 = new Donatee();\n        addDonatees(address(_instance)); // make ur life easy\n        // addDonatees(address(_instance1));\n    }\n    // Donate Function \n    function DONATE(address donoraddr, uint _amount) public payable {\n\n        require(donoraddr != address(0x00) , \"Pls enter your etherium addr\");\n        require(_amount >= 1, \"Pls Enter an integer number\");\n        require(alertAll(), \"\\nEveryone will be alert in the Network\\nThis place isn't laundry Pls!!!\");\n\n        if(_amount > threshold  ){\n           addSuspect(donoraddr);\n           susFunds += _amount;\n        }\n        if(_amount <= threshold) {\n            addDonors(donoraddr);\n            totalFunds += _amount;  \n        }\n    }\n\n    // get all money in NGO\n    function getNGOFunds() public view returns (uint) { \n        return totalFunds;\n    }\n\n\n    function getSusFunds() public view returns (uint) { \n        return susFunds;\n    }\n\n    function getThreshold() public view returns (uint) { \n        return threshold;\n    }\n\n    function getMaxValue() public view returns (uint) { \n        return maxValue;\n    }\n\n\n    function getDonors() public view returns (address[] memory){\n        return donors;\n    }\n\n    function getDonatees() public view returns (address[] memory){\n        return donatees;\n    }\n    \n    function getLaundry() public view returns (address[] memory){\n        return suspectLaundry;\n    }\n\n    function addDonors(address _donor) private {\n        donors.push(_donor);\n    }\n\n    function getUser() public view returns (string memory) {\n        return user;\n    }\n\n    function setUser(string memory _user) public \n    {\n        require(msg.sender == owner, \"Not the owner\");\n        user = _user;\n    }\n\n    function addDonatees(address _donatee) private {\n        donatees.push(_donatee);\n    }\n\n    function addSuspect(address _suspect) private {\n        suspectLaundry.push(_suspect);\n    }\n\n    function alertAll() private view returns (bool){\n        if (totalFunds < maxValue) {\n            return true;\n        }\n        return false;\n    }\n\n    function giveToDonatee(uint256 _amount) external payable {\n        require(_amount <= totalFunds ,\"Pls Enter funds <= totalfunds\");\n        _instance.receiveDonation(_amount);\n\n        // uncomment this line if u're using metamask (injected Web3), \n        // because this will duduct the money from ur wallet\n        // payable (msg.sender).transfer(_amount);\n        totalFunds -= _amount;\n    }\n\n    function withdrawDonatee(uint256 _amount) public payable {\n        _instance.withdraw(_amount);\n    }\n    \n    function donateeShowBalance() public view returns (uint256) {\n        return _instance.showBalance();\n    }\n\n    function setDonorName(string memory _name) public {\n        donorName = _name;\n    }\n\n    function setDonorLocation(string memory _location) public {\n        donorLocation = _location;\n    }\n\n    function getDonorName() public view returns (string memory) {\n        return donorName;\n    }\n\n    function getDonorLocation() public view returns (string memory) {\n        return donorLocation;\n    }\n    \n    function setDonateeInfo(address _addr, string memory _name, string memory _location) public {    \n        _instance.setDonateeAddr(_addr);\n        _instance.setDonateeName(_name);\n        _instance.setDonateeLocation(_location);\n    }\n\n    function getDonateeInfo() public view returns (address, string memory, string memory, uint256 ) {\n        return (_instance.getDonateeAddr(), _instance.getDonateeName(), _instance.getDonateeLocation(), _instance.getDonateeTotalFunds());\n    }\n}",
  "sourcePath": "/home/blackdracula/semester/blockchain/project/blockchain-application/contracts/NGOrganization.sol",
  "compiler": {
    "name": "solc",
    "version": "0.8.10+commit.fc410830.Emscripten.clang"
  },
  "schemaVersion": "3.4.4",
  "updatedAt": "2022-01-15T11:50:19.126Z",
  "networkType": "ethereum",
  "devdoc": {
    "kind": "dev",
    "methods": {},
    "version": 1
  },
  "userdoc": {
    "kind": "user",
    "methods": {},
    "version": 1
  }
}