{
  "contractName": "NGOrganization",
  "abi": [
    {
      "inputs": [
        {
          "internalType": "string",
          "name": "_user",
          "type": "string"
        }
      ],
      "stateMutability": "nonpayable",
      "type": "constructor"
    },
    {
      "inputs": [
        {
          "internalType": "address",
          "name": "donoraddr",
          "type": "address"
        },
        {
          "internalType": "uint256",
          "name": "_amount",
          "type": "uint256"
        }
      ],
      "name": "DONATE",
      "outputs": [],
      "stateMutability": "payable",
      "type": "function",
      "payable": true
    },
    {
      "inputs": [],
      "name": "getNGOFunds",
      "outputs": [
        {
          "internalType": "uint256",
          "name": "",
          "type": "uint256"
        }
      ],
      "stateMutability": "view",
      "type": "function",
      "constant": true
    },
    {
      "inputs": [],
      "name": "getDonors",
      "outputs": [
        {
          "internalType": "address[]",
          "name": "",
          "type": "address[]"
        }
      ],
      "stateMutability": "view",
      "type": "function",
      "constant": true
    },
    {
      "inputs": [],
      "name": "getDonatees",
      "outputs": [
        {
          "internalType": "address[]",
          "name": "",
          "type": "address[]"
        }
      ],
      "stateMutability": "view",
      "type": "function",
      "constant": true
    },
    {
      "inputs": [],
      "name": "getLaundry",
      "outputs": [
        {
          "internalType": "address[]",
          "name": "",
          "type": "address[]"
        }
      ],
      "stateMutability": "view",
      "type": "function",
      "constant": true
    },
    {
      "inputs": [],
      "name": "getUser",
      "outputs": [
        {
          "internalType": "string",
          "name": "",
          "type": "string"
        }
      ],
      "stateMutability": "view",
      "type": "function",
      "constant": true
    },
    {
      "inputs": [
        {
          "internalType": "string",
          "name": "_user",
          "type": "string"
        }
      ],
      "name": "setUser",
      "outputs": [],
      "stateMutability": "nonpayable",
      "type": "function"
    },
    {
      "inputs": [
        {
          "internalType": "uint256",
          "name": "_amount",
          "type": "uint256"
        }
      ],
      "name": "giveToDonatee",
      "outputs": [],
      "stateMutability": "payable",
      "type": "function",
      "payable": true
    },
    {
      "inputs": [
        {
          "internalType": "uint256",
          "name": "_amount",
          "type": "uint256"
        }
      ],
      "name": "withdrawDonatee",
      "outputs": [],
      "stateMutability": "payable",
      "type": "function",
      "payable": true
    },
    {
      "inputs": [],
      "name": "donateeShowBalance",
      "outputs": [
        {
          "internalType": "uint256",
          "name": "",
          "type": "uint256"
        }
      ],
      "stateMutability": "view",
      "type": "function",
      "constant": true
    },
    {
      "inputs": [
        {
          "internalType": "string",
          "name": "_name",
          "type": "string"
        }
      ],
      "name": "setDonorName",
      "outputs": [],
      "stateMutability": "nonpayable",
      "type": "function"
    },
    {
      "inputs": [
        {
          "internalType": "string",
          "name": "_location",
          "type": "string"
        }
      ],
      "name": "setDonorLocation",
      "outputs": [],
      "stateMutability": "nonpayable",
      "type": "function"
    },
    {
      "inputs": [],
      "name": "getDonorName",
      "outputs": [
        {
          "internalType": "string",
          "name": "",
          "type": "string"
        }
      ],
      "stateMutability": "view",
      "type": "function",
      "constant": true
    },
    {
      "inputs": [],
      "name": "getDonorLocation",
      "outputs": [
        {
          "internalType": "string",
          "name": "",
          "type": "string"
        }
      ],
      "stateMutability": "view",
      "type": "function",
      "constant": true
    }
  ],
  "bytecode": "0x6080604052600a600755600060085560006009556032600a553480156200002557600080fd5b506040516200222e3803806200222e83398181016040528101906200004b91906200040c565b33600260006101000a81548173ffffffffffffffffffffffffffffffffffffffff021916908373ffffffffffffffffffffffffffffffffffffffff1602179055508060069080519060200190620000a4929190620001b1565b50604051620000b39062000242565b604051809103906000f080158015620000d0573d6000803e3d6000fd5b50600b60006101000a81548173ffffffffffffffffffffffffffffffffffffffff021916908373ffffffffffffffffffffffffffffffffffffffff16021790555062000144600b60009054906101000a900473ffffffffffffffffffffffffffffffffffffffff166200014b60201b60201c565b50620004c2565b6001819080600181540180825580915050600190039060005260206000200160009091909190916101000a81548173ffffffffffffffffffffffffffffffffffffffff021916908373ffffffffffffffffffffffffffffffffffffffff16021790555050565b828054620001bf906200048c565b90600052602060002090601f016020900481019282620001e357600085556200022f565b82601f10620001fe57805160ff19168380011785556200022f565b828001600101855582156200022f579182015b828111156200022e57825182559160200191906001019062000211565b5b5090506200023e919062000250565b5090565b6108bd806200197183390190565b5b808211156200026b57600081600090555060010162000251565b5090565b6000604051905090565b600080fd5b600080fd5b600080fd5b600080fd5b6000601f19601f8301169050919050565b7f4e487b7100000000000000000000000000000000000000000000000000000000600052604160045260246000fd5b620002d8826200028d565b810181811067ffffffffffffffff82111715620002fa57620002f96200029e565b5b80604052505050565b60006200030f6200026f565b90506200031d8282620002cd565b919050565b600067ffffffffffffffff82111562000340576200033f6200029e565b5b6200034b826200028d565b9050602081019050919050565b60005b83811015620003785780820151818401526020810190506200035b565b8381111562000388576000848401525b50505050565b6000620003a56200039f8462000322565b62000303565b905082815260208101848484011115620003c457620003c362000288565b5b620003d184828562000358565b509392505050565b600082601f830112620003f157620003f062000283565b5b8151620004038482602086016200038e565b91505092915050565b60006020828403121562000425576200042462000279565b5b600082015167ffffffffffffffff8111156200044657620004456200027e565b5b6200045484828501620003d9565b91505092915050565b7f4e487b7100000000000000000000000000000000000000000000000000000000600052602260045260246000fd5b60006002820490506001821680620004a557607f821691505b60208210811415620004bc57620004bb6200045d565b5b50919050565b61149f80620004d26000396000f3fe6080604052600436106100dd5760003560e01c806368c879411161007f57806394bc29691161005957806394bc29691461026157806396f300d41461028c578063d0020fad146102b7578063f0737028146102e0576100dd565b806368c87941146101ef578063832880e71461020b5780638c69b7b414610236576100dd565b806330238a8f116100bb57806330238a8f14610145578063341f61c714610170578063346079941461019b57806356c03c74146101c4576100dd565b806311dbcb65146100e257806314ee2e0e146100fe5780631aca08301461011a575b600080fd5b6100fc60048036038101906100f79190610c97565b610309565b005b61011860048036038101906101139190610d22565b610399565b005b34801561012657600080fd5b5061012f6104f1565b60405161013c9190610e20565b60405180910390f35b34801561015157600080fd5b5061015a61057f565b6040516101679190610edb565b60405180910390f35b34801561017c57600080fd5b50610185610611565b6040516101929190610f0c565b60405180910390f35b3480156101a757600080fd5b506101c260048036038101906101bd919061105c565b61061b565b005b3480156101d057600080fd5b506101d9610635565b6040516101e69190610edb565b60405180910390f35b61020960048036038101906102049190610c97565b6106c7565b005b34801561021757600080fd5b506102206107b5565b60405161022d9190610edb565b60405180910390f35b34801561024257600080fd5b5061024b610847565b6040516102589190610f0c565b60405180910390f35b34801561026d57600080fd5b506102766108df565b6040516102839190610e20565b60405180910390f35b34801561029857600080fd5b506102a161096d565b6040516102ae9190610e20565b60405180910390f35b3480156102c357600080fd5b506102de60048036038101906102d9919061105c565b6109fb565b005b3480156102ec57600080fd5b506103076004803603810190610302919061105c565b610aa5565b005b600b60009054906101000a900473ffffffffffffffffffffffffffffffffffffffff1673ffffffffffffffffffffffffffffffffffffffff16632e1a7d4d826040518263ffffffff1660e01b81526004016103649190610f0c565b600060405180830381600087803b15801561037e57600080fd5b505af1158015610392573d6000803e3d6000fd5b5050505050565b600073ffffffffffffffffffffffffffffffffffffffff168273ffffffffffffffffffffffffffffffffffffffff161415610409576040517f08c379a0000000000000000000000000000000000000000000000000000000008152600401610400906110f1565b60405180910390fd5b600181101561044d576040517f08c379a00000000000000000000000000000000000000000000000000000000081526004016104449061115d565b60405180910390fd5b610455610abf565b610494576040517f08c379a000000000000000000000000000000000000000000000000000000000815260040161048b90611215565b60405180910390fd5b6007548111156104c1576104a782610ade565b80600960008282546104b99190611264565b925050819055505b60075481116104ed576104d382610b44565b80600860008282546104e59190611264565b925050819055505b5050565b6060600380548060200260200160405190810160405280929190818152602001828054801561057557602002820191906000526020600020905b8160009054906101000a900473ffffffffffffffffffffffffffffffffffffffff1673ffffffffffffffffffffffffffffffffffffffff168152602001906001019080831161052b575b5050505050905090565b60606004805461058e906112e9565b80601f01602080910402602001604051908101604052809291908181526020018280546105ba906112e9565b80156106075780601f106105dc57610100808354040283529160200191610607565b820191906000526020600020905b8154815290600101906020018083116105ea57829003601f168201915b5050505050905090565b6000600854905090565b8060049080519060200190610631929190610baa565b5050565b606060058054610644906112e9565b80601f0160208091040260200160405190810160405280929190818152602001828054610670906112e9565b80156106bd5780601f10610692576101008083540402835291602001916106bd565b820191906000526020600020905b8154815290600101906020018083116106a057829003601f168201915b5050505050905090565b60085481111561070c576040517f08c379a000000000000000000000000000000000000000000000000000000000815260040161070390611367565b60405180910390fd5b600b60009054906101000a900473ffffffffffffffffffffffffffffffffffffffff1673ffffffffffffffffffffffffffffffffffffffff1663d70c03bc826040518263ffffffff1660e01b81526004016107679190610f0c565b600060405180830381600087803b15801561078157600080fd5b505af1158015610795573d6000803e3d6000fd5b5050505080600860008282546107ab9190611387565b9250508190555050565b6060600680546107c4906112e9565b80601f01602080910402602001604051908101604052809291908181526020018280546107f0906112e9565b801561083d5780601f106108125761010080835404028352916020019161083d565b820191906000526020600020905b81548152906001019060200180831161082057829003601f168201915b5050505050905090565b6000600b60009054906101000a900473ffffffffffffffffffffffffffffffffffffffff1673ffffffffffffffffffffffffffffffffffffffff166381b2d07b6040518163ffffffff1660e01b8152600401602060405180830381865afa1580156108b6573d6000803e3d6000fd5b505050506040513d601f19601f820116820180604052508101906108da91906113d0565b905090565b6060600180548060200260200160405190810160405280929190818152602001828054801561096357602002820191906000526020600020905b8160009054906101000a900473ffffffffffffffffffffffffffffffffffffffff1673ffffffffffffffffffffffffffffffffffffffff1681526020019060010190808311610919575b5050505050905090565b606060008054806020026020016040519081016040528092919081815260200182805480156109f157602002820191906000526020600020905b8160009054906101000a900473ffffffffffffffffffffffffffffffffffffffff1673ffffffffffffffffffffffffffffffffffffffff16815260200190600101908083116109a7575b5050505050905090565b600260009054906101000a900473ffffffffffffffffffffffffffffffffffffffff1673ffffffffffffffffffffffffffffffffffffffff163373ffffffffffffffffffffffffffffffffffffffff1614610a8b576040517f08c379a0000000000000000000000000000000000000000000000000000000008152600401610a8290611449565b60405180910390fd5b8060069080519060200190610aa1929190610baa565b5050565b8060059080519060200190610abb929190610baa565b5050565b6000600a546008541015610ad65760019050610adb565b600090505b90565b6003819080600181540180825580915050600190039060005260206000200160009091909190916101000a81548173ffffffffffffffffffffffffffffffffffffffff021916908373ffffffffffffffffffffffffffffffffffffffff16021790555050565b6000819080600181540180825580915050600190039060005260206000200160009091909190916101000a81548173ffffffffffffffffffffffffffffffffffffffff021916908373ffffffffffffffffffffffffffffffffffffffff16021790555050565b828054610bb6906112e9565b90600052602060002090601f016020900481019282610bd85760008555610c1f565b82601f10610bf157805160ff1916838001178555610c1f565b82800160010185558215610c1f579182015b82811115610c1e578251825591602001919060010190610c03565b5b509050610c2c9190610c30565b5090565b5b80821115610c49576000816000905550600101610c31565b5090565b6000604051905090565b600080fd5b600080fd5b6000819050919050565b610c7481610c61565b8114610c7f57600080fd5b50565b600081359050610c9181610c6b565b92915050565b600060208284031215610cad57610cac610c57565b5b6000610cbb84828501610c82565b91505092915050565b600073ffffffffffffffffffffffffffffffffffffffff82169050919050565b6000610cef82610cc4565b9050919050565b610cff81610ce4565b8114610d0a57600080fd5b50565b600081359050610d1c81610cf6565b92915050565b60008060408385031215610d3957610d38610c57565b5b6000610d4785828601610d0d565b9250506020610d5885828601610c82565b9150509250929050565b600081519050919050565b600082825260208201905092915050565b6000819050602082019050919050565b610d9781610ce4565b82525050565b6000610da98383610d8e565b60208301905092915050565b6000602082019050919050565b6000610dcd82610d62565b610dd78185610d6d565b9350610de283610d7e565b8060005b83811015610e13578151610dfa8882610d9d565b9750610e0583610db5565b925050600181019050610de6565b5085935050505092915050565b60006020820190508181036000830152610e3a8184610dc2565b905092915050565b600081519050919050565b600082825260208201905092915050565b60005b83811015610e7c578082015181840152602081019050610e61565b83811115610e8b576000848401525b50505050565b6000601f19601f8301169050919050565b6000610ead82610e42565b610eb78185610e4d565b9350610ec7818560208601610e5e565b610ed081610e91565b840191505092915050565b60006020820190508181036000830152610ef58184610ea2565b905092915050565b610f0681610c61565b82525050565b6000602082019050610f216000830184610efd565b92915050565b600080fd5b600080fd5b7f4e487b7100000000000000000000000000000000000000000000000000000000600052604160045260246000fd5b610f6982610e91565b810181811067ffffffffffffffff82111715610f8857610f87610f31565b5b80604052505050565b6000610f9b610c4d565b9050610fa78282610f60565b919050565b600067ffffffffffffffff821115610fc757610fc6610f31565b5b610fd082610e91565b9050602081019050919050565b82818337600083830152505050565b6000610fff610ffa84610fac565b610f91565b90508281526020810184848401111561101b5761101a610f2c565b5b611026848285610fdd565b509392505050565b600082601f83011261104357611042610f27565b5b8135611053848260208601610fec565b91505092915050565b60006020828403121561107257611071610c57565b5b600082013567ffffffffffffffff8111156110905761108f610c5c565b5b61109c8482850161102e565b91505092915050565b7f506c7320656e74657220796f757220657468657269756d206164647200000000600082015250565b60006110db601c83610e4d565b91506110e6826110a5565b602082019050919050565b6000602082019050818103600083015261110a816110ce565b9050919050565b7f506c7320456e74657220616e20696e7465676572206e756d6265720000000000600082015250565b6000611147601b83610e4d565b915061115282611111565b602082019050919050565b600060208201905081810360008301526111768161113a565b9050919050565b7f0a45766572796f6e652077696c6c20626520616c65727420696e20746865204e60008201527f6574776f726b0a5468697320706c6163652069736e2774206c61756e6472792060208201527f506c732121210000000000000000000000000000000000000000000000000000604082015250565b60006111ff604683610e4d565b915061120a8261117d565b606082019050919050565b6000602082019050818103600083015261122e816111f2565b9050919050565b7f4e487b7100000000000000000000000000000000000000000000000000000000600052601160045260246000fd5b600061126f82610c61565b915061127a83610c61565b9250827fffffffffffffffffffffffffffffffffffffffffffffffffffffffffffffffff038211156112af576112ae611235565b5b828201905092915050565b7f4e487b7100000000000000000000000000000000000000000000000000000000600052602260045260246000fd5b6000600282049050600182168061130157607f821691505b60208210811415611315576113146112ba565b5b50919050565b7f506c7320456e7465722066756e6473203c3d20746f74616c66756e6473000000600082015250565b6000611351601d83610e4d565b915061135c8261131b565b602082019050919050565b6000602082019050818103600083015261138081611344565b9050919050565b600061139282610c61565b915061139d83610c61565b9250828210156113b0576113af611235565b5b828203905092915050565b6000815190506113ca81610c6b565b92915050565b6000602082840312156113e6576113e5610c57565b5b60006113f4848285016113bb565b91505092915050565b7f4e6f7420746865206f776e657200000000000000000000000000000000000000600082015250565b6000611433600d83610e4d565b915061143e826113fd565b602082019050919050565b6000602082019050818103600083015261146281611426565b905091905056fea26469706673582212205adfd8805e50f8a4e5861a6c629d5733bee23529cbbd8688eea8e540f4a2dfe564736f6c634300080a00336080604052600060025534801561001557600080fd5b50610898806100256000396000f3fe6080604052600436106100705760003560e01c8063827bfbdf1161004e578063827bfbdf146100e7578063c47f002714610110578063ce2ce3fc14610139578063d70c03bc1461016457610070565b806317d7de7c146100755780632e1a7d4d146100a057806381b2d07b146100bc575b600080fd5b34801561008157600080fd5b5061008a610180565b604051610097919061049b565b60405180910390f35b6100ba60048036038101906100b59190610507565b610212565b005b3480156100c857600080fd5b506100d1610273565b6040516100de9190610543565b60405180910390f35b3480156100f357600080fd5b5061010e60048036038101906101099190610693565b61027d565b005b34801561011c57600080fd5b5061013760048036038101906101329190610693565b610297565b005b34801561014557600080fd5b5061014e6102b1565b60405161015b919061049b565b60405180910390f35b61017e60048036038101906101799190610507565b610343565b005b60606000805461018f9061070b565b80601f01602080910402602001604051908101604052809291908181526020018280546101bb9061070b565b80156102085780601f106101dd57610100808354040283529160200191610208565b820191906000526020600020905b8154815290600101906020018083116101eb57829003601f168201915b5050505050905090565b600254811115610257576040517f08c379a000000000000000000000000000000000000000000000000000000000815260040161024e90610789565b60405180910390fd5b806002600082825461026991906107d8565b9250508190555050565b6000600254905090565b806001908051906020019061029392919061035f565b5050565b80600090805190602001906102ad92919061035f565b5050565b6060600180546102c09061070b565b80601f01602080910402602001604051908101604052809291908181526020018280546102ec9061070b565b80156103395780601f1061030e57610100808354040283529160200191610339565b820191906000526020600020905b81548152906001019060200180831161031c57829003601f168201915b5050505050905090565b8060026000828254610355919061080c565b9250508190555050565b82805461036b9061070b565b90600052602060002090601f01602090048101928261038d57600085556103d4565b82601f106103a657805160ff19168380011785556103d4565b828001600101855582156103d4579182015b828111156103d35782518255916020019190600101906103b8565b5b5090506103e191906103e5565b5090565b5b808211156103fe5760008160009055506001016103e6565b5090565b600081519050919050565b600082825260208201905092915050565b60005b8381101561043c578082015181840152602081019050610421565b8381111561044b576000848401525b50505050565b6000601f19601f8301169050919050565b600061046d82610402565b610477818561040d565b935061048781856020860161041e565b61049081610451565b840191505092915050565b600060208201905081810360008301526104b58184610462565b905092915050565b6000604051905090565b600080fd5b600080fd5b6000819050919050565b6104e4816104d1565b81146104ef57600080fd5b50565b600081359050610501816104db565b92915050565b60006020828403121561051d5761051c6104c7565b5b600061052b848285016104f2565b91505092915050565b61053d816104d1565b82525050565b60006020820190506105586000830184610534565b92915050565b600080fd5b600080fd5b7f4e487b7100000000000000000000000000000000000000000000000000000000600052604160045260246000fd5b6105a082610451565b810181811067ffffffffffffffff821117156105bf576105be610568565b5b80604052505050565b60006105d26104bd565b90506105de8282610597565b919050565b600067ffffffffffffffff8211156105fe576105fd610568565b5b61060782610451565b9050602081019050919050565b82818337600083830152505050565b6000610636610631846105e3565b6105c8565b90508281526020810184848401111561065257610651610563565b5b61065d848285610614565b509392505050565b600082601f83011261067a5761067961055e565b5b813561068a848260208601610623565b91505092915050565b6000602082840312156106a9576106a86104c7565b5b600082013567ffffffffffffffff8111156106c7576106c66104cc565b5b6106d384828501610665565b91505092915050565b7f4e487b7100000000000000000000000000000000000000000000000000000000600052602260045260246000fd5b6000600282049050600182168061072357607f821691505b60208210811415610737576107366106dc565b5b50919050565b7f4d757374206265203c3d20546f74616c46756e64730000000000000000000000600082015250565b600061077360158361040d565b915061077e8261073d565b602082019050919050565b600060208201905081810360008301526107a281610766565b9050919050565b7f4e487b7100000000000000000000000000000000000000000000000000000000600052601160045260246000fd5b60006107e3826104d1565b91506107ee836104d1565b925082821015610801576108006107a9565b5b828203905092915050565b6000610817826104d1565b9150610822836104d1565b9250827fffffffffffffffffffffffffffffffffffffffffffffffffffffffffffffffff03821115610857576108566107a9565b5b82820190509291505056fea26469706673582212202558dc6447fc4a1109e522d8770dd3b3a80dcaa1038fa32f1c69ec05e0effd6f64736f6c634300080a0033",
  "immutableReferences": {},
  "source": "// SPDX-License-Identifier: GPL-3.0\n\nimport \"./Donatee.sol\";\npragma solidity >=0.7.0 <0.9.0;\n\ncontract NGOrganization{\n\n    // all local variables \n    address[] private donors;\n    address[] private donatees;\n    address private owner;\n    address[] private suspectLaundry;\n    string private donorName;\n    string private donorLocation;\n    string private user;\n    uint private threshold = 10;\n    uint private totalFunds = 0;\n    uint private susFunds = 0;\n    uint private maxValue = 50;\n    Donatee private _instance; //instance of donatee obj\n\n    constructor(string memory _user) {\n        owner = msg.sender;\n        user = _user;\n        _instance = new Donatee();\n        addDonatees(address(_instance)); // make ur life easy\n    }\n    // Donate Function \n    function DONATE(address donoraddr, uint _amount) public payable {\n\n        require(donoraddr != address(0x00) , \"Pls enter your etherium addr\");\n        require(_amount >= 1, \"Pls Enter an integer number\");\n        require(alertAll(), \"\\nEveryone will be alert in the Network\\nThis place isn't laundry Pls!!!\");\n\n        if(_amount > threshold  ){\n           addSuspect(donoraddr);\n           susFunds += _amount;\n        }\n        if(_amount <= threshold) {\n            addDonors(donoraddr);\n            totalFunds += _amount;  \n        }\n    }\n\n    // get all money in NGO\n    function getNGOFunds() public view returns (uint) { \n        return totalFunds;\n    }\n\n    function getDonors() public view returns (address[] memory){\n        return donors;\n    }\n\n    function getDonatees() public view returns (address[] memory){\n        return donatees;\n    }\n    \n    function getLaundry() public view returns (address[] memory){\n        return suspectLaundry;\n    }\n\n    function addDonors(address _donor) private {\n        donors.push(_donor);\n    }\n\n    function getUser() public view returns (string memory) {\n        return user;\n    }\n\n    function setUser(string memory _user) public \n    {\n        require(msg.sender == owner, \"Not the owner\");\n        user = _user;\n    }\n\n    function addDonatees(address _donatee) private {\n        donatees.push(_donatee);\n    }\n\n    function addSuspect(address _suspect) private {\n        suspectLaundry.push(_suspect);\n    }\n\n    function alertAll() private view returns (bool){\n        if (totalFunds < maxValue) {\n            return true;\n        }\n        return false;\n    }\n\n    function giveToDonatee(uint256 _amount) external payable {\n        require(_amount <= totalFunds ,\"Pls Enter funds <= totalfunds\");\n        _instance.receiveDonation(_amount);\n\n        // uncomment this line if u're using metamask (injected Web3), \n        // because this will duduct the money from ur wallet\n        // payable (msg.sender).transfer(_amount);\n        totalFunds -= _amount;\n    }\n\n    function withdrawDonatee(uint256 _amount) public payable {\n        _instance.withdraw(_amount);\n    }\n    \n    function donateeShowBalance() public view returns (uint256) {\n        return _instance.showBalance();\n    }\n\n    function setDonorName(string memory _name) public {\n        donorName = _name;\n    }\n\n    function setDonorLocation(string memory _location) public {\n        donorLocation = _location;\n    }\n\n    function getDonorName() public view returns (string memory) {\n        return donorName;\n    }\n\n    function getDonorLocation() public view returns (string memory) {\n        return donorLocation;\n    }\n}\n\n",
  "sourcePath": "/home/blackdracula/semester/blockchain/project/blockchain-application/contracts/NGOrganization.sol",
  "compiler": {
    "name": "solc",
    "version": "0.8.10+commit.fc410830.Emscripten.clang"
  },
  "schemaVersion": "3.4.4",
  "updatedAt": "2022-01-11T06:05:25.530Z",
  "networkType": "ethereum",
  "devdoc": {
    "kind": "dev",
    "methods": {},
    "version": 1
  },
  "userdoc": {
    "kind": "user",
    "methods": {},
    "version": 1
  }
}