{
  "contractName": "NGOrganization",
  "abi": [
    {
      "inputs": [
        {
          "internalType": "string",
          "name": "_user",
          "type": "string"
        }
      ],
      "stateMutability": "nonpayable",
      "type": "constructor"
    },
    {
      "inputs": [],
      "name": "_instance",
      "outputs": [
        {
          "internalType": "contract Donatee",
          "name": "",
          "type": "address"
        }
      ],
      "stateMutability": "view",
      "type": "function"
    },
    {
      "inputs": [
        {
          "internalType": "address",
          "name": "donoraddr",
          "type": "address"
        },
        {
          "internalType": "uint256",
          "name": "_amount",
          "type": "uint256"
        }
      ],
      "name": "DONATE",
      "outputs": [],
      "stateMutability": "payable",
      "type": "function"
    },
    {
      "inputs": [],
      "name": "getNGOFunds",
      "outputs": [
        {
          "internalType": "uint256",
          "name": "",
          "type": "uint256"
        }
      ],
      "stateMutability": "view",
      "type": "function"
    },
    {
      "inputs": [],
      "name": "getSusFunds",
      "outputs": [
        {
          "internalType": "uint256",
          "name": "",
          "type": "uint256"
        }
      ],
      "stateMutability": "view",
      "type": "function"
    },
    {
      "inputs": [],
      "name": "getThreshold",
      "outputs": [
        {
          "internalType": "uint256",
          "name": "",
          "type": "uint256"
        }
      ],
      "stateMutability": "view",
      "type": "function"
    },
    {
      "inputs": [],
      "name": "getMaxValue",
      "outputs": [
        {
          "internalType": "uint256",
          "name": "",
          "type": "uint256"
        }
      ],
      "stateMutability": "view",
      "type": "function"
    },
    {
      "inputs": [],
      "name": "getDonors",
      "outputs": [
        {
          "internalType": "address[]",
          "name": "",
          "type": "address[]"
        }
      ],
      "stateMutability": "view",
      "type": "function"
    },
    {
      "inputs": [],
      "name": "getDonatees",
      "outputs": [
        {
          "internalType": "address[]",
          "name": "",
          "type": "address[]"
        }
      ],
      "stateMutability": "view",
      "type": "function"
    },
    {
      "inputs": [],
      "name": "getLaundry",
      "outputs": [
        {
          "internalType": "address[]",
          "name": "",
          "type": "address[]"
        }
      ],
      "stateMutability": "view",
      "type": "function"
    },
    {
      "inputs": [],
      "name": "getUser",
      "outputs": [
        {
          "internalType": "string",
          "name": "",
          "type": "string"
        }
      ],
      "stateMutability": "view",
      "type": "function"
    },
    {
      "inputs": [
        {
          "internalType": "string",
          "name": "_user",
          "type": "string"
        }
      ],
      "name": "setUser",
      "outputs": [],
      "stateMutability": "nonpayable",
      "type": "function"
    },
    {
      "inputs": [
        {
          "internalType": "uint256",
          "name": "_amount",
          "type": "uint256"
        }
      ],
      "name": "giveToDonatee",
      "outputs": [],
      "stateMutability": "payable",
      "type": "function"
    },
    {
      "inputs": [
        {
          "internalType": "uint256",
          "name": "_amount",
          "type": "uint256"
        }
      ],
      "name": "withdrawDonatee",
      "outputs": [],
      "stateMutability": "payable",
      "type": "function"
    },
    {
      "inputs": [],
      "name": "donateeShowBalance",
      "outputs": [
        {
          "internalType": "uint256",
          "name": "",
          "type": "uint256"
        }
      ],
      "stateMutability": "view",
      "type": "function"
    },
    {
      "inputs": [
        {
          "internalType": "string",
          "name": "_name",
          "type": "string"
        }
      ],
      "name": "setDonorName",
      "outputs": [],
      "stateMutability": "nonpayable",
      "type": "function"
    },
    {
      "inputs": [
        {
          "internalType": "string",
          "name": "_location",
          "type": "string"
        }
      ],
      "name": "setDonorLocation",
      "outputs": [],
      "stateMutability": "nonpayable",
      "type": "function"
    },
    {
      "inputs": [],
      "name": "getDonorName",
      "outputs": [
        {
          "internalType": "string",
          "name": "",
          "type": "string"
        }
      ],
      "stateMutability": "view",
      "type": "function"
    },
    {
      "inputs": [],
      "name": "getDonorLocation",
      "outputs": [
        {
          "internalType": "string",
          "name": "",
          "type": "string"
        }
      ],
      "stateMutability": "view",
      "type": "function"
    },
    {
      "inputs": [],
      "name": "getDonateeInfo",
      "outputs": [
        {
          "internalType": "address",
          "name": "",
          "type": "address"
        },
        {
          "internalType": "string",
          "name": "",
          "type": "string"
        },
        {
          "internalType": "string",
          "name": "",
          "type": "string"
        },
        {
          "internalType": "uint256",
          "name": "",
          "type": "uint256"
        }
      ],
      "stateMutability": "view",
      "type": "function"
    }
  ],
  "bytecode": "0x6080604052600a600755600060085560006009556032600a553480156200002557600080fd5b506040516200298a3803806200298a83398181016040528101906200004b91906200040c565b33600260006101000a81548173ffffffffffffffffffffffffffffffffffffffff021916908373ffffffffffffffffffffffffffffffffffffffff1602179055508060069080519060200190620000a4929190620001b1565b50604051620000b39062000242565b604051809103906000f080158015620000d0573d6000803e3d6000fd5b50600b60006101000a81548173ffffffffffffffffffffffffffffffffffffffff021916908373ffffffffffffffffffffffffffffffffffffffff16021790555062000144600b60009054906101000a900473ffffffffffffffffffffffffffffffffffffffff166200014b60201b60201c565b50620004c2565b6001819080600181540180825580915050600190039060005260206000200160009091909190916101000a81548173ffffffffffffffffffffffffffffffffffffffff021916908373ffffffffffffffffffffffffffffffffffffffff16021790555050565b828054620001bf906200048c565b90600052602060002090601f016020900481019282620001e357600085556200022f565b82601f10620001fe57805160ff19168380011785556200022f565b828001600101855582156200022f579182015b828111156200022e57825182559160200191906001019062000211565b5b5090506200023e919062000250565b5090565b610a8a8062001f0083390190565b5b808211156200026b57600081600090555060010162000251565b5090565b6000604051905090565b600080fd5b600080fd5b600080fd5b600080fd5b6000601f19601f8301169050919050565b7f4e487b7100000000000000000000000000000000000000000000000000000000600052604160045260246000fd5b620002d8826200028d565b810181811067ffffffffffffffff82111715620002fa57620002f96200029e565b5b80604052505050565b60006200030f6200026f565b90506200031d8282620002cd565b919050565b600067ffffffffffffffff82111562000340576200033f6200029e565b5b6200034b826200028d565b9050602081019050919050565b60005b83811015620003785780820151818401526020810190506200035b565b8381111562000388576000848401525b50505050565b6000620003a56200039f8462000322565b62000303565b905082815260208101848484011115620003c457620003c362000288565b5b620003d184828562000358565b509392505050565b600082601f830112620003f157620003f062000283565b5b8151620004038482602086016200038e565b91505092915050565b60006020828403121562000425576200042462000279565b5b600082015167ffffffffffffffff8111156200044657620004456200027e565b5b6200045484828501620003d9565b91505092915050565b7f4e487b7100000000000000000000000000000000000000000000000000000000600052602260045260246000fd5b60006002820490506001821680620004a557607f821691505b60208210811415620004bc57620004bb6200045d565b5b50919050565b611a2e80620004d26000396000f3fe6080604052600436106101145760003560e01c806356c03c74116100a057806396f300d41161006457806396f300d414610347578063c61dc45f14610372578063d0020fad1461039d578063e75235b8146103c6578063f0737028146103f157610114565b806356c03c741461027f57806368c87941146102aa578063832880e7146102c65780638c69b7b4146102f157806394bc29691461031c57610114565b806330238a8f116100e757806330238a8f146101aa578063341f61c7146101d557806334607994146102005780633e9f536a146102295780634c9eb4d41461025457610114565b8063101205501461011957806311dbcb651461014757806314ee2e0e146101635780631aca08301461017f575b600080fd5b34801561012557600080fd5b5061012e61041a565b60405161013e94939291906110f8565b60405180910390f35b610161600480360381019061015c919061118b565b61067d565b005b61017d600480360381019061017891906111e4565b61070d565b005b34801561018b57600080fd5b50610194610865565b6040516101a191906112e2565b60405180910390f35b3480156101b657600080fd5b506101bf6108f3565b6040516101cc9190611304565b60405180910390f35b3480156101e157600080fd5b506101ea610985565b6040516101f79190611326565b60405180910390f35b34801561020c57600080fd5b5061022760048036038101906102229190611476565b61098f565b005b34801561023557600080fd5b5061023e6109a9565b60405161024b919061151e565b60405180910390f35b34801561026057600080fd5b506102696109cf565b6040516102769190611326565b60405180910390f35b34801561028b57600080fd5b506102946109d9565b6040516102a19190611304565b60405180910390f35b6102c460048036038101906102bf919061118b565b610a6b565b005b3480156102d257600080fd5b506102db610b59565b6040516102e89190611304565b60405180910390f35b3480156102fd57600080fd5b50610306610beb565b6040516103139190611326565b60405180910390f35b34801561032857600080fd5b50610331610c83565b60405161033e91906112e2565b60405180910390f35b34801561035357600080fd5b5061035c610d11565b60405161036991906112e2565b60405180910390f35b34801561037e57600080fd5b50610387610d9f565b6040516103949190611326565b60405180910390f35b3480156103a957600080fd5b506103c460048036038101906103bf9190611476565b610da9565b005b3480156103d257600080fd5b506103db610e53565b6040516103e89190611326565b60405180910390f35b3480156103fd57600080fd5b5061041860048036038101906104139190611476565b610e5d565b005b60006060806000600b60009054906101000a900473ffffffffffffffffffffffffffffffffffffffff1673ffffffffffffffffffffffffffffffffffffffff16634a4298816040518163ffffffff1660e01b8152600401602060405180830381865afa15801561048e573d6000803e3d6000fd5b505050506040513d601f19601f820116820180604052508101906104b2919061154e565b600b60009054906101000a900473ffffffffffffffffffffffffffffffffffffffff1673ffffffffffffffffffffffffffffffffffffffff1663865a2e516040518163ffffffff1660e01b8152600401600060405180830381865afa15801561051f573d6000803e3d6000fd5b505050506040513d6000823e3d601f19601f8201168201806040525081019061054891906115eb565b600b60009054906101000a900473ffffffffffffffffffffffffffffffffffffffff1673ffffffffffffffffffffffffffffffffffffffff1663e6ade3b96040518163ffffffff1660e01b8152600401600060405180830381865afa1580156105b5573d6000803e3d6000fd5b505050506040513d6000823e3d601f19601f820116820180604052508101906105de91906115eb565b600b60009054906101000a900473ffffffffffffffffffffffffffffffffffffffff1673ffffffffffffffffffffffffffffffffffffffff16638a6cd9f06040518163ffffffff1660e01b8152600401602060405180830381865afa15801561064b573d6000803e3d6000fd5b505050506040513d601f19601f8201168201806040525081019061066f9190611649565b935093509350935090919293565b600b60009054906101000a900473ffffffffffffffffffffffffffffffffffffffff1673ffffffffffffffffffffffffffffffffffffffff16632e1a7d4d826040518263ffffffff1660e01b81526004016106d89190611326565b600060405180830381600087803b1580156106f257600080fd5b505af1158015610706573d6000803e3d6000fd5b5050505050565b600073ffffffffffffffffffffffffffffffffffffffff168273ffffffffffffffffffffffffffffffffffffffff16141561077d576040517f08c379a0000000000000000000000000000000000000000000000000000000008152600401610774906116c2565b60405180910390fd5b60018110156107c1576040517f08c379a00000000000000000000000000000000000000000000000000000000081526004016107b89061172e565b60405180910390fd5b6107c9610e77565b610808576040517f08c379a00000000000000000000000000000000000000000000000000000000081526004016107ff906117e6565b60405180910390fd5b6007548111156108355761081b82610e96565b806009600082825461082d9190611835565b925050819055505b60075481116108615761084782610efc565b80600860008282546108599190611835565b925050819055505b5050565b606060038054806020026020016040519081016040528092919081815260200182805480156108e957602002820191906000526020600020905b8160009054906101000a900473ffffffffffffffffffffffffffffffffffffffff1673ffffffffffffffffffffffffffffffffffffffff168152602001906001019080831161089f575b5050505050905090565b606060048054610902906118ba565b80601f016020809104026020016040519081016040528092919081815260200182805461092e906118ba565b801561097b5780601f106109505761010080835404028352916020019161097b565b820191906000526020600020905b81548152906001019060200180831161095e57829003601f168201915b5050505050905090565b6000600854905090565b80600490805190602001906109a5929190610f62565b5050565b600b60009054906101000a900473ffffffffffffffffffffffffffffffffffffffff1681565b6000600a54905090565b6060600580546109e8906118ba565b80601f0160208091040260200160405190810160405280929190818152602001828054610a14906118ba565b8015610a615780601f10610a3657610100808354040283529160200191610a61565b820191906000526020600020905b815481529060010190602001808311610a4457829003601f168201915b5050505050905090565b600854811115610ab0576040517f08c379a0000000000000000000000000000000000000000000000000000000008152600401610aa790611938565b60405180910390fd5b600b60009054906101000a900473ffffffffffffffffffffffffffffffffffffffff1673ffffffffffffffffffffffffffffffffffffffff1663d70c03bc826040518263ffffffff1660e01b8152600401610b0b9190611326565b600060405180830381600087803b158015610b2557600080fd5b505af1158015610b39573d6000803e3d6000fd5b505050508060086000828254610b4f9190611958565b9250508190555050565b606060068054610b68906118ba565b80601f0160208091040260200160405190810160405280929190818152602001828054610b94906118ba565b8015610be15780601f10610bb657610100808354040283529160200191610be1565b820191906000526020600020905b815481529060010190602001808311610bc457829003601f168201915b5050505050905090565b6000600b60009054906101000a900473ffffffffffffffffffffffffffffffffffffffff1673ffffffffffffffffffffffffffffffffffffffff166381b2d07b6040518163ffffffff1660e01b8152600401602060405180830381865afa158015610c5a573d6000803e3d6000fd5b505050506040513d601f19601f82011682018060405250810190610c7e9190611649565b905090565b60606001805480602002602001604051908101604052809291908181526020018280548015610d0757602002820191906000526020600020905b8160009054906101000a900473ffffffffffffffffffffffffffffffffffffffff1673ffffffffffffffffffffffffffffffffffffffff1681526020019060010190808311610cbd575b5050505050905090565b60606000805480602002602001604051908101604052809291908181526020018280548015610d9557602002820191906000526020600020905b8160009054906101000a900473ffffffffffffffffffffffffffffffffffffffff1673ffffffffffffffffffffffffffffffffffffffff1681526020019060010190808311610d4b575b5050505050905090565b6000600954905090565b600260009054906101000a900473ffffffffffffffffffffffffffffffffffffffff1673ffffffffffffffffffffffffffffffffffffffff163373ffffffffffffffffffffffffffffffffffffffff1614610e39576040517f08c379a0000000000000000000000000000000000000000000000000000000008152600401610e30906119d8565b60405180910390fd5b8060069080519060200190610e4f929190610f62565b5050565b6000600754905090565b8060059080519060200190610e73929190610f62565b5050565b6000600a546008541015610e8e5760019050610e93565b600090505b90565b6003819080600181540180825580915050600190039060005260206000200160009091909190916101000a81548173ffffffffffffffffffffffffffffffffffffffff021916908373ffffffffffffffffffffffffffffffffffffffff16021790555050565b6000819080600181540180825580915050600190039060005260206000200160009091909190916101000a81548173ffffffffffffffffffffffffffffffffffffffff021916908373ffffffffffffffffffffffffffffffffffffffff16021790555050565b828054610f6e906118ba565b90600052602060002090601f016020900481019282610f905760008555610fd7565b82601f10610fa957805160ff1916838001178555610fd7565b82800160010185558215610fd7579182015b82811115610fd6578251825591602001919060010190610fbb565b5b509050610fe49190610fe8565b5090565b5b80821115611001576000816000905550600101610fe9565b5090565b600073ffffffffffffffffffffffffffffffffffffffff82169050919050565b600061103082611005565b9050919050565b61104081611025565b82525050565b600081519050919050565b600082825260208201905092915050565b60005b83811015611080578082015181840152602081019050611065565b8381111561108f576000848401525b50505050565b6000601f19601f8301169050919050565b60006110b182611046565b6110bb8185611051565b93506110cb818560208601611062565b6110d481611095565b840191505092915050565b6000819050919050565b6110f2816110df565b82525050565b600060808201905061110d6000830187611037565b818103602083015261111f81866110a6565b9050818103604083015261113381856110a6565b905061114260608301846110e9565b95945050505050565b6000604051905090565b600080fd5b600080fd5b611168816110df565b811461117357600080fd5b50565b6000813590506111858161115f565b92915050565b6000602082840312156111a1576111a0611155565b5b60006111af84828501611176565b91505092915050565b6111c181611025565b81146111cc57600080fd5b50565b6000813590506111de816111b8565b92915050565b600080604083850312156111fb576111fa611155565b5b6000611209858286016111cf565b925050602061121a85828601611176565b9150509250929050565b600081519050919050565b600082825260208201905092915050565b6000819050602082019050919050565b61125981611025565b82525050565b600061126b8383611250565b60208301905092915050565b6000602082019050919050565b600061128f82611224565b611299818561122f565b93506112a483611240565b8060005b838110156112d55781516112bc888261125f565b97506112c783611277565b9250506001810190506112a8565b5085935050505092915050565b600060208201905081810360008301526112fc8184611284565b905092915050565b6000602082019050818103600083015261131e81846110a6565b905092915050565b600060208201905061133b60008301846110e9565b92915050565b600080fd5b600080fd5b7f4e487b7100000000000000000000000000000000000000000000000000000000600052604160045260246000fd5b61138382611095565b810181811067ffffffffffffffff821117156113a2576113a161134b565b5b80604052505050565b60006113b561114b565b90506113c1828261137a565b919050565b600067ffffffffffffffff8211156113e1576113e061134b565b5b6113ea82611095565b9050602081019050919050565b82818337600083830152505050565b6000611419611414846113c6565b6113ab565b90508281526020810184848401111561143557611434611346565b5b6114408482856113f7565b509392505050565b600082601f83011261145d5761145c611341565b5b813561146d848260208601611406565b91505092915050565b60006020828403121561148c5761148b611155565b5b600082013567ffffffffffffffff8111156114aa576114a961115a565b5b6114b684828501611448565b91505092915050565b6000819050919050565b60006114e46114df6114da84611005565b6114bf565b611005565b9050919050565b60006114f6826114c9565b9050919050565b6000611508826114eb565b9050919050565b611518816114fd565b82525050565b6000602082019050611533600083018461150f565b92915050565b600081519050611548816111b8565b92915050565b60006020828403121561156457611563611155565b5b600061157284828501611539565b91505092915050565b600061158e611589846113c6565b6113ab565b9050828152602081018484840111156115aa576115a9611346565b5b6115b5848285611062565b509392505050565b600082601f8301126115d2576115d1611341565b5b81516115e284826020860161157b565b91505092915050565b60006020828403121561160157611600611155565b5b600082015167ffffffffffffffff81111561161f5761161e61115a565b5b61162b848285016115bd565b91505092915050565b6000815190506116438161115f565b92915050565b60006020828403121561165f5761165e611155565b5b600061166d84828501611634565b91505092915050565b7f506c7320656e74657220796f757220657468657269756d206164647200000000600082015250565b60006116ac601c83611051565b91506116b782611676565b602082019050919050565b600060208201905081810360008301526116db8161169f565b9050919050565b7f506c7320456e74657220616e20696e7465676572206e756d6265720000000000600082015250565b6000611718601b83611051565b9150611723826116e2565b602082019050919050565b600060208201905081810360008301526117478161170b565b9050919050565b7f0a45766572796f6e652077696c6c20626520616c65727420696e20746865204e60008201527f6574776f726b0a5468697320706c6163652069736e2774206c61756e6472792060208201527f506c732121210000000000000000000000000000000000000000000000000000604082015250565b60006117d0604683611051565b91506117db8261174e565b606082019050919050565b600060208201905081810360008301526117ff816117c3565b9050919050565b7f4e487b7100000000000000000000000000000000000000000000000000000000600052601160045260246000fd5b6000611840826110df565b915061184b836110df565b9250827fffffffffffffffffffffffffffffffffffffffffffffffffffffffffffffffff038211156118805761187f611806565b5b828201905092915050565b7f4e487b7100000000000000000000000000000000000000000000000000000000600052602260045260246000fd5b600060028204905060018216806118d257607f821691505b602082108114156118e6576118e561188b565b5b50919050565b7f506c7320456e7465722066756e6473203c3d20746f74616c66756e6473000000600082015250565b6000611922601d83611051565b915061192d826118ec565b602082019050919050565b6000602082019050818103600083015261195181611915565b9050919050565b6000611963826110df565b915061196e836110df565b92508282101561198157611980611806565b5b828203905092915050565b7f4e6f7420746865206f776e657200000000000000000000000000000000000000600082015250565b60006119c2600d83611051565b91506119cd8261198c565b602082019050919050565b600060208201905081810360008301526119f1816119b5565b905091905056fea2646970667358221220c11a34d4e86fb76400e4876666fd148bd7c787f7384a5ebf98a63edc61f08a5664736f6c634300080a00336080604052600060025534801561001557600080fd5b50610a65806100256000396000f3fe6080604052600436106100915760003560e01c8063d324b18b11610059578063d324b18b1461015e578063d70c03bc14610187578063da6d7e8d146101a3578063e6ade3b9146101cc578063e911bd0a146101f757610091565b80632e1a7d4d146100965780634a429881146100b257806381b2d07b146100dd578063865a2e51146101085780638a6cd9f014610133575b600080fd5b6100b060048036038101906100ab9190610564565b610220565b005b3480156100be57600080fd5b506100c7610281565b6040516100d491906105d2565b60405180910390f35b3480156100e957600080fd5b506100f26102ab565b6040516100ff91906105fc565b60405180910390f35b34801561011457600080fd5b5061011d6102b5565b60405161012a91906106b0565b60405180910390f35b34801561013f57600080fd5b50610148610347565b60405161015591906105fc565b60405180910390f35b34801561016a57600080fd5b50610185600480360381019061018091906106fe565b610351565b005b6101a1600480360381019061019c9190610564565b610395565b005b3480156101af57600080fd5b506101ca60048036038101906101c59190610860565b6103b1565b005b3480156101d857600080fd5b506101e16103cb565b6040516101ee91906106b0565b60405180910390f35b34801561020357600080fd5b5061021e60048036038101906102199190610860565b61045d565b005b600254811115610265576040517f08c379a000000000000000000000000000000000000000000000000000000000815260040161025c906108f5565b60405180910390fd5b80600260008282546102779190610944565b9250508190555050565b6000600360009054906101000a900473ffffffffffffffffffffffffffffffffffffffff16905090565b6000600254905090565b6060600080546102c4906109a7565b80601f01602080910402602001604051908101604052809291908181526020018280546102f0906109a7565b801561033d5780601f106103125761010080835404028352916020019161033d565b820191906000526020600020905b81548152906001019060200180831161032057829003601f168201915b5050505050905090565b6000600254905090565b80600360006101000a81548173ffffffffffffffffffffffffffffffffffffffff021916908373ffffffffffffffffffffffffffffffffffffffff16021790555050565b80600260008282546103a791906109d9565b9250508190555050565b80600090805190602001906103c7929190610477565b5050565b6060600180546103da906109a7565b80601f0160208091040260200160405190810160405280929190818152602001828054610406906109a7565b80156104535780601f1061042857610100808354040283529160200191610453565b820191906000526020600020905b81548152906001019060200180831161043657829003601f168201915b5050505050905090565b8060019080519060200190610473929190610477565b5050565b828054610483906109a7565b90600052602060002090601f0160209004810192826104a557600085556104ec565b82601f106104be57805160ff19168380011785556104ec565b828001600101855582156104ec579182015b828111156104eb5782518255916020019190600101906104d0565b5b5090506104f991906104fd565b5090565b5b808211156105165760008160009055506001016104fe565b5090565b6000604051905090565b600080fd5b600080fd5b6000819050919050565b6105418161052e565b811461054c57600080fd5b50565b60008135905061055e81610538565b92915050565b60006020828403121561057a57610579610524565b5b60006105888482850161054f565b91505092915050565b600073ffffffffffffffffffffffffffffffffffffffff82169050919050565b60006105bc82610591565b9050919050565b6105cc816105b1565b82525050565b60006020820190506105e760008301846105c3565b92915050565b6105f68161052e565b82525050565b600060208201905061061160008301846105ed565b92915050565b600081519050919050565b600082825260208201905092915050565b60005b83811015610651578082015181840152602081019050610636565b83811115610660576000848401525b50505050565b6000601f19601f8301169050919050565b600061068282610617565b61068c8185610622565b935061069c818560208601610633565b6106a581610666565b840191505092915050565b600060208201905081810360008301526106ca8184610677565b905092915050565b6106db816105b1565b81146106e657600080fd5b50565b6000813590506106f8816106d2565b92915050565b60006020828403121561071457610713610524565b5b6000610722848285016106e9565b91505092915050565b600080fd5b600080fd5b7f4e487b7100000000000000000000000000000000000000000000000000000000600052604160045260246000fd5b61076d82610666565b810181811067ffffffffffffffff8211171561078c5761078b610735565b5b80604052505050565b600061079f61051a565b90506107ab8282610764565b919050565b600067ffffffffffffffff8211156107cb576107ca610735565b5b6107d482610666565b9050602081019050919050565b82818337600083830152505050565b60006108036107fe846107b0565b610795565b90508281526020810184848401111561081f5761081e610730565b5b61082a8482856107e1565b509392505050565b600082601f8301126108475761084661072b565b5b81356108578482602086016107f0565b91505092915050565b60006020828403121561087657610875610524565b5b600082013567ffffffffffffffff81111561089457610893610529565b5b6108a084828501610832565b91505092915050565b7f4d757374206265203c3d20546f74616c46756e64730000000000000000000000600082015250565b60006108df601583610622565b91506108ea826108a9565b602082019050919050565b6000602082019050818103600083015261090e816108d2565b9050919050565b7f4e487b7100000000000000000000000000000000000000000000000000000000600052601160045260246000fd5b600061094f8261052e565b915061095a8361052e565b92508282101561096d5761096c610915565b5b828203905092915050565b7f4e487b7100000000000000000000000000000000000000000000000000000000600052602260045260246000fd5b600060028204905060018216806109bf57607f821691505b602082108114156109d3576109d2610978565b5b50919050565b60006109e48261052e565b91506109ef8361052e565b9250827fffffffffffffffffffffffffffffffffffffffffffffffffffffffffffffffff03821115610a2457610a23610915565b5b82820190509291505056fea264697066735822122049a688844d0e43fc6139890becefd06c3304cc7af72d2377e906d07373a70a7a64736f6c634300080a0033",
  "immutableReferences": {},
  "source": "// SPDX-License-Identifier: GPL-3.0\n\nimport \"./Donatee.sol\";\npragma solidity >=0.7.0 <0.9.0;\n\ncontract NGOrganization{\n\n    // all local variables \n    address[] private donors;\n    address[] private donatees;\n    address private owner;\n    address[] private suspectLaundry;\n    string private donorName;\n    string private donorLocation;\n    string private user;\n    uint private threshold = 10;\n    uint private totalFunds = 0;\n    uint private susFunds = 0;\n    uint private maxValue = 50;\n    Donatee public _instance; //instance of donatee obj\n    Donatee private _instance1; //instance of donatee obj1 for truffle testing\n\n    constructor(string memory _user) {\n        owner = msg.sender;\n        user = _user;\n        _instance = new Donatee();\n        // _instance1 = new Donatee();\n        addDonatees(address(_instance)); // make ur life easy\n        // addDonatees(address(_instance1));\n    }\n    // Donate Function \n    function DONATE(address donoraddr, uint _amount) public payable {\n\n        require(donoraddr != address(0x00) , \"Pls enter your etherium addr\");\n        require(_amount >= 1, \"Pls Enter an integer number\");\n        require(alertAll(), \"\\nEveryone will be alert in the Network\\nThis place isn't laundry Pls!!!\");\n\n        if(_amount > threshold  ){\n           addSuspect(donoraddr);\n           susFunds += _amount;\n        }\n        if(_amount <= threshold) {\n            addDonors(donoraddr);\n            totalFunds += _amount;  \n        }\n    }\n\n    // get all money in NGO\n    function getNGOFunds() public view returns (uint) { \n        return totalFunds;\n    }\n\n\n    function getSusFunds() public view returns (uint) { \n        return susFunds;\n    }\n\n    function getThreshold() public view returns (uint) { \n        return threshold;\n    }\n\n    function getMaxValue() public view returns (uint) { \n        return maxValue;\n    }\n\n\n    function getDonors() public view returns (address[] memory){\n        return donors;\n    }\n\n    function getDonatees() public view returns (address[] memory){\n        return donatees;\n    }\n    \n    function getLaundry() public view returns (address[] memory){\n        return suspectLaundry;\n    }\n\n    function addDonors(address _donor) private {\n        donors.push(_donor);\n    }\n\n    function getUser() public view returns (string memory) {\n        return user;\n    }\n\n    function setUser(string memory _user) public \n    {\n        require(msg.sender == owner, \"Not the owner\");\n        user = _user;\n    }\n\n    function addDonatees(address _donatee) private {\n        donatees.push(_donatee);\n    }\n\n    function addSuspect(address _suspect) private {\n        suspectLaundry.push(_suspect);\n    }\n\n    function alertAll() private view returns (bool){\n        if (totalFunds < maxValue) {\n            return true;\n        }\n        return false;\n    }\n\n    function giveToDonatee(uint256 _amount) external payable {\n        require(_amount <= totalFunds ,\"Pls Enter funds <= totalfunds\");\n        _instance.receiveDonation(_amount);\n\n        // uncomment this line if u're using metamask (injected Web3), \n        // because this will duduct the money from ur wallet\n        // payable (msg.sender).transfer(_amount);\n        totalFunds -= _amount;\n    }\n\n    function withdrawDonatee(uint256 _amount) public payable {\n        _instance.withdraw(_amount);\n    }\n    \n    function donateeShowBalance() public view returns (uint256) {\n        return _instance.showBalance();\n    }\n\n    function setDonorName(string memory _name) public {\n        donorName = _name;\n    }\n\n    function setDonorLocation(string memory _location) public {\n        donorLocation = _location;\n    }\n\n    function getDonorName() public view returns (string memory) {\n        return donorName;\n    }\n\n    function getDonorLocation() public view returns (string memory) {\n        return donorLocation;\n    }\n    \n    function getDonateeInfo() public view returns (address, string memory, string memory, uint256 ) {\n        return (_instance.getDonateeAddr(), _instance.getDonateeName(), _instance.getDonateeLocation(), _instance.getDonateeTotalFunds());\n    }\n}",
  "sourcePath": "/home/blackdracula/semester/blockchain/project/blockchain-application/contracts/NGOrganization.sol",
  "compiler": {
    "name": "solc",
    "version": "0.8.10+commit.fc410830.Emscripten.clang"
  },
  "schemaVersion": "3.4.4",
  "updatedAt": "2022-01-12T09:25:59.666Z",
  "networkType": "ethereum",
  "devdoc": {
    "kind": "dev",
    "methods": {},
    "version": 1
  },
  "userdoc": {
    "kind": "user",
    "methods": {},
    "version": 1
  }
}